:020000040800F2
:10000000E8810020FD040008FD020008FF0200084E
:1000100001030008030300080503000800000000B6
:1000200000000000000000000000000007030008BE
:100030000903000800000000FF710008F10F00082C
:100040001705000817050008170500081705000820
:100050001705000817050008170500081705000810
:100060001705000817050008170500081705000800
:1000700017050008170500081705000817050008F0
:1000800017050008170500081705000817050008E0
:1000900017050008170500081705000817050008D0
:1000A00017050008170500081705000817050008C0
:1000B00017050008170500081705000817050008B0
:1000C00017050008170500081705000817050008A0
:1000D0001705000895110008170500081705000806
:1000E0001705000817050008170500081705000880
:1000F0001705000817050008170500081705000870
:10010000170500081705000817050008170500085F
:10011000170500081705000817050008170500084F
:10012000170500081705000817050008170500083F
:10013000170500081705000817050008170500082F
:10014000170500081705000817050008170500081F
:10015000170500081705000817050008170500080F
:1001600017050008170500081705000817050008FF
:1001700017050008170500081705000817050008EF
:10018000170500081705000800F002F800F044F811
:100190000AA090E8000C82448344AAF10107DA45E2
:1001A00001D100F039F8AFF2090EBAE80F0013F0F0
:1001B000010F18BFFB1A43F001031847D872000063
:1001C000F8720000103A24BF78C878C1FAD85207F4
:1001D00024BF30C830C144BF04680C6070470000C1
:1001E0000023002400250026103A28BF78C1FBD840
:1001F000520728BF30C148BF0B607047642906F022
:100200008B86732906F05587002070471FB507F0CD
:1002100031F81FBD10B510BD06F0A6FF1146FFF75F
:10022000F5FF00F025F806F0C4FF03B4FFF7F2FF76
:1002300003BC00F051FF00000EB525A006F002FE41
:1002400002AD002301AA19461846009505F0F0F802
:100250000400F6D0BDF80420002AF2D0014622A006
:1002600006F0F0FDBDF80410204606F091FEE8E728
:1002700000B58BB0A82000F0C9FE4FF4A06000F0DC
:100280005DF94FF4165000F02FFF00F0FDF809A8BB
:1002900002F0F1F8002009A905900690CDE90701C8
:1002A00013480DF1040C402380220C218CE80F0030
:1002B00003200023AFF27F0200900D480DA1C43847
:1002C00004F005FF09A802F0F4FA0BB0002000BD0D
:1002D0007461736B3120697320637265617465208A
:1002E0006F6B0D0A0000000025733A25640D0A00AB
:1002F000B80100205461736B310000007047FEE7C5
:10030000FEE7FEE7FEE77047704700000CB50022ED
:10031000544900920192086840F4803008604FF41C
:10032000A043086800F4003001900098401C009041
:10033000019810B900989842F3D10868800334D529
:100340000120019047484030026842F0805202602C
:100350004548026842F44042026042480830026860
:100360000260026842F400420260026842F4A05255
:100370000260031F3D4A1A600A6842F080720A60F8
:100380000A689201FCD53A4940F205720A60016898
:1003900021F003010160016841F002010160016880
:1003A000C1F381010229FAD10CBD01920CBD314883
:1003B00010B5016841F4700101602A48016841F0FC
:1003C00001010160274A00210832116002682A4BAE
:1003D0001A400260031D294A1A60026822F4802232
:1003E000026020480C300160FFF790FF21494FF078
:1003F00000608039086010BD70B51A4D0835286856
:100400001F4B204910F00C0004D05E10042803D0CC
:10041000082803D00B601BE00E6019E0114A121D82
:100420001068C0F38054106800F03F0014B1B6FBB0
:10043000F0F001E0B3FBF0F013681268C3F3881327
:100440005843C2F30142521C5200B0FBF2F0086064
:1004500028680C4AC0F30310121D105C0A68C240E1
:100460000A6070BD00380240007000400854400728
:10047000003C024088ED00E0FFFFF6FE1030002453
:100480000024F400000000202DE9FC470121302069
:1004900000F01BFB01248DF8044000268DF8066057
:1004A0000327DFF850904FF4C0658DF80570009574
:1004B0008DF807406946484600F004F98DF804407D
:1004C0008DF806608DF805708DF807400A4C4FF4E2
:1004D000C048CDF800806946204600F0F3F8294670
:1004E000484600F054F94146204600F050F9BDE876
:1004F000FC870000001402400010024009488047B9
:1005000009480047FEE7FEE7FEE7FEE7FEE7FEE7F5
:10051000FEE7FEE7FEE7FEE704480549054A064B0D
:1005200070470000AF03000889010008E82100209F
:10053000E8810020E8410020E841002028490843E4
:1005400028490860704730B50F23C278017801252B
:10055000FAB1244A126801F1E02102F4E062C2F526
:10056000E062C2F30722C2F10404D3404278A24001
:1005700084781C401443220181F80024007800F0A4
:100580001F018D404009800000F1E020C0F80051BB
:1005900030BD01F01F0085404809800000F1E020D7
:1005A000C0F8805130BD104A114001430D48001F72
:1005B000016070470B4A121D0029116801D00143E8
:1005C00000E08143116070474FF0E0210428086982
:1005D00003D020F004000861704740F00400FAE7FF
:1005E0000000FA050CED00E080FFFF1F774910B511
:1005F000884206D10121084600F099FA0021012025
:100600005BE07349884206D10121022000F08FFA95
:100610000021022051E06F49884206D101210420C7
:1006200000F085FA0021042047E06B49884206D19A
:100630000121082000F07BFA002108203DE06749F5
:10064000884206D10121102000F071FA002110200B
:1006500033E06349884206D10121202000F067FA87
:100660000021202029E05F49884206D10121402055
:1006700000F05DFA002140201FE05B49884206D16E
:100680000121802000F053FA0021802015E0574915
:10069000884202D1012184150AE05549884202D1DD
:1006A0000121441504E0534988420AD1012104156F
:1006B000204600F03CFA00212046BDE8104000F042
:1006C00036BA10BDF0B5002201274FF0030C0B68BD
:1006D00007FA02F52B40AB422CD1066853000CFA06
:1006E00003F4A64306600E79D0F800E09E4046EA87
:1006F0000E0606600E79012E01D0022E12D18668F8
:10070000A64386604E79D0F808E09E4046EA0E0681
:1007100086604668AE43466045688E799640B6B2BC
:1007200035434560C568A543C560CC799C40C36826
:100730001C43C460521C102AC9D3F0BD4FF6FF7190
:1007400001600021017141718171C171704708B56B
:1007500041F480320092C261C1610099C161C169F6
:10076000C069009008BD0246002012690A4200D00C
:1007700001207047006980B270470246002052692C
:100780000A4200D001207047406980B2704701835F
:100790007047418370470AB10183704741837047B6
:1007A0004161704742694A40426170474B07DB0E26
:1007B0009A40C90810B500EB8100016A0F249C40E3
:1007C000A1430162016A1143016210BD00000240B1
:1007D0000004024000080240000C024000100240E9
:1007E0000014024000180240001C02400020024099
:1007F0000024024000280240F848016841F001014D
:100800000160F64A0021083211600268F44B1A4078
:100810000260031DF34A1A60F04BF34A84331A60F6
:10082000F04A103A1B1D1A60026822F4802202600E
:10083000EA480C300160181D01607047E74900224A
:10084000891C0A700870704702460020510901296E
:100850000CD002290CD0E1497431096802F01F0262
:10086000012393400B4200D001207047DB49F4E79D
:10087000DA497031F1E718B500204FF4A044009038
:100880003120FFF7E1FF0099491C0091A14201D0FE
:100890000028F5D03120FFF7D7FF002800D0012035
:1008A00018BDCE4A116821F0F80141EAC00010607D
:1008B0007047CE4908607047C849002270310A70FD
:1008C0000A70012802D0042801D105200870704761
:1008D000C7490860704741EA82115A0810B5C54BF4
:1008E000029C03EB02421143014341EA0460BB490D
:1008F000091D086010BDBD4908667047800140EAC7
:100900000170B649843108607047B84988667047FD
:10091000800140EA0160B14940EA02708831086014
:100920007047B24908677047B049C8647047AB4B1D
:1009300008331A68084322F0EC62104318607047CD
:10094000A64B08331A68084322F078421043186017
:100950007047A24A0832116821F003010143116077
:1009600070479E480830006800F00C0070479B4AB2
:100970000832116821F0F001014311607047974A75
:100980000832116821F4E051014311607047934A25
:100990000832116821F4604141EAC00010607047DC
:1009A00070B58E4B08331968934C11F00C0104D0CC
:1009B0006610042903D0082903D004601BE00660F8
:1009C00019E0864A121D1168C1F38055116801F0C3
:1009D0003F0115B1B6FBF1F101E0B4FBF1F1146890
:1009E0001268C4F388146143C2F30142521C5200DE
:1009F000B1FBF2F1016019680F2202EA11117F4A7E
:100A0000545C0168E14041601C68072505EA9424B4
:100A1000145D21FA04F484601B6805EA5333D25C48
:100A2000D140C16070BDC0F30121032908D16B4BD7
:100A300008331968724A21F4F81102400A431A6017
:100A4000664970310A68C0F30B0002430A607047C0
:100A50006749443908607047654940390860704704
:100A60006249C1F85C0170475C4A8C321168401ED3
:100A700021F01F01014311607047584A8C32116800
:100A80006FF0FF0321F4F85103EB002008431060DE
:100A90007047524A8C32116821F4401101431160B1
:100AA00070474E4A8C32116821F4400101431160B5
:100AB00070474A4A8C32116821F440310143116079
:100AC00070475049C1F8E0017047444A303200296C
:100AD000116801D0014300E08143116070473F4A33
:100AE00034320029116801D0014300E081431160D4
:100AF00070473A4A38320029116801D0014300E0BA
:100B0000814311607047354A40320029116801D095
:100B1000014300E0814311607047304A44320029AC
:100B2000116801D0014300E08143116070472B4AF6
:100B300010320029116801D0014300E081431160A7
:100B40007047264A14320029116801D0014300E0A1
:100B5000814311607047214A18320029116801D081
:100B6000014300E08143116070471C4A2032002994
:100B7000116801D0014300E0814311607047174ABA
:100B800024320029116801D0014300E08143116043
:100B90007047124A50320029116801D0014300E029
:100BA0008143116070470D4A54320029116801D009
:100BB000014300E0814311607047084A5832002920
:100BC000116801D0014300E0814311607047034A7E
:100BD00060320029116817D0014316E00038024046
:100BE000FFFFF6EA103000240030002000004742EA
:100BF000800E47420000FFFF0024F4001400002094
:100C0000FFFCFF0F00104742814311607047194AF3
:100C10000029116801D0014300E081431160704751
:100C200014490C310128086803D020F0080008603E
:100C3000704740F00800FAE70E4A573A0029117849
:100C400001D0014300E08143117070470948103022
:100C5000016841F08071016070470146054A00203B
:100C6000583A12680A4200D00120704701495639AB
:100C70000870704764380240CD4910B5884206D1EB
:100C800001211020FFF77BFF0021102020E0C9493F
:100C9000884202D101214C0429E0C749884202D18F
:100CA00001218C0423E0C549884202D10121CC04F2
:100CB0001DE0C349884202D101210C0517E0C1495A
:100CC000884209D101212020FFF759FF002120206F
:100CD000BDE81040FFF753BFBB49884202D1012154
:100CE0008C0704E0B94988420AD101214405204615
:100CF000FFF73BFF2046BDE810400021FFF735BF5E
:100D000010BD7FB50446008A0D46C98820F44050C6
:100D100001432182A08941F20C618843A9882A8974
:100D200011436A8902431143A181A08A20F44071D2
:100D3000A8890843A0826846FFF732FE9C48844297
:100D400002D0A048844201D1039800E00298A18912
:100D5000090400EBC00101EB0010296801D549002E
:100D600000E08900B0FBF1F06422B0FBF2F1090170
:100D70000B096FF018056B4300EB8300A3891D047A
:100D80004FF0320306D503EBC000B0FBF2F000F0E9
:100D9000070005E003EB0010B0FBF2F000F00F00DD
:100DA000084320817FBD4FF41651016000218180EE
:100DB000C18001810C2242818181704710B5028A75
:100DC0004C8822F470630A8822438C88C9880C43BB
:100DD00022431A43028210BD00210180418081809C
:100DE000C18070470029818902D041F4005101E09F
:100DF00021F4005181817047028B02F47F4202830B
:100E0000028B0A43028370470029818902D041F492
:100E1000004101E0C1F30E01818170470029818A00
:100E200002D041F4006101E021F400618182704749
:100E3000C1F30801818070478088C0F308007047C3
:100E4000028A22F00F020282028A0A43028270475B
:100E50000029818902D041F0020101E021F0020164
:100E600081817047828922F40062828182890A43EB
:100E700082817047028A22F020020282028A0A439B
:100E8000028270470029018A02D041F4804101E0CA
:100E900021F4804101827047818941F00101818103
:100EA00070470029818A02D041F0080101E021F059
:100EB000080181827047028BD2B20283028B42EA20
:100EC0000121018370470029818A02D041F020016D
:100ED00001E021F02001818270470029818A02D03F
:100EE00041F0100101E021F0100181827047828AF7
:100EF00022F004028282828A0A4382827047002999
:100F0000818A02D041F0020101E021F002018182D8
:100F10007047002A828A01D00A4300E08A43828215
:100F2000704710B5C1F3421301F01F040121A14025
:100F3000012B07D0022B07D01430002A026805D0FD
:100F40000A4304E00C30F8E71030F6E78A43026009
:100F500010BD0246002012880A4200D001207047CE
:100F6000C9430180704770B501F01F0501260024B8
:100F7000C1F3421306FA05F2012B0FD0022B0FD05A
:100F8000838A4FEA11210088134206FA01F600EA2B
:100F9000060001D000B10124204670BD8389F0E72E
:100FA000038AEEE70A0A01219140C9430180704794
:100FB000001001400044004000480040004C004048
:100FC000005000400014014000780040007C0040C8
:100FD00008B5684601F04CFB08BD08B5684601F04D
:100FE00080FB08BD08B56A46082105F0CDF808BDAC
:100FF000344810B50078012807D101F0C7FA05F090
:1010000020FABDE8104001F0CCBA10BD10B504467E
:101010006FF00400FFF7D8FA2B4BE0082B4A18704A
:101020002B4C1168B4FBF1F1414310684FF47A7214
:10103000B2FBF0F058804FF0E020026942F002026B
:1010400002614161016941F00101016110BDF8B522
:101050004FF0E02700247E691B49097800FB01F569
:10106000684601F005FBB969B8698842FCD002D234
:10107000A1EB000102E0A6EB000211440C44014682
:10108000AC42F1D3684601F02CFBF8BD70B50446C4
:101090000C48007878B10F48007860B90A4D68882C
:1010A000844203D3B4FBF0F0FFF79CFF6888B4FBE5
:1010B000F0F100FB11444FF47A706043BDE87040DA
:1010C000C5E70000610000202400002060740008D3
:1010D00040420F006000002070474B490A885206CA
:1010E000FCD5C2B28A807047F0B50646012187B0B0
:1010F0000846FFF7EAFC01211020FFF70EFD434DE3
:10110000072209212846FFF751FB07220A2128461A
:10111000FFF74CFB02218DF814108DF815104FF4D9
:10112000C060002404908DF8164001278DF81770D8
:1011300004A92846FFF7C6FAADF80440ADF806400A
:10114000ADF80840ADF80C400C202F4CADF80A006B
:10115000009669462046FFF7D4FD01212046FFF79F
:1011600041FE40212046FFF7FBFE012240F22551BF
:101170002046FFF7D6FE25208DF8180003208DF8B5
:1011800019008DF81A008DF81B7006A8FFF7DBF91F
:1011900007B0F0BD7CB501F0F9F91B4E40F22551C6
:1011A0003046FFF7E0FE1A4D0024C8B13046FFF785
:1011B00043FEC1B22888020412D4420404D50A298D
:1011C0000DD140F400401CE00D2918D0C0F30D02F1
:1011D000104B401C80B299542880C72800D92C801D
:1011E00001F0DFF92888010408D501A9C2B20091F5
:1011F00000230849084804F074FA2C807CBD40F4B0
:1012000080402880ECE70000001001400000024010
:1012100028000020B8030020F40000201FB5684615
:10122000FFF7BEFB019804B010BD10B5FFF7F6FF45
:1012300011490A6842F080720A60104900224A602F
:101240000A6842F001020A60BDE8104000F076B87A
:101250000A484068704710B50446FFF7DFFF0021D9
:10126000074A0B4605F077FD02460B462046002153
:1012700005F071FD10BD0000FCED00E0001000E085
:1012800040420F0010B500F0DFF804461021694815
:1012900000F0D8F92046BDE8104000F0D9B8664902
:1012A00010B500200860FFF7C0FFBDE81040E9E777
:1012B000FEE770B505460C000ED075B100F0C4F81D
:1012C000064610225B49284600F0C4FC304600F078
:1012D000BFF80020208070BDFEE70A20088070BDA6
:1012E00070B50C00054612D095B1102100F0A4FC99
:1012F000102810D200F0A8F80646102229464D48C2
:1013000000F0A8FC304600F0A3F8002005E0FEE75E
:101310000A20088070BD4FF47A70208070BDFFF7FE
:1013200097BF7047020004D04348006810B1002105
:1013300002E0FEE74FF4FA61118070473E49086011
:10134000704710B500F08BF8183810BD10B500F0DC
:1013500086F8103810BD00F082B8F0B50C0E0B0CFA
:101360000D0A0026354AD0F1FF378E411BD24FF6C9
:10137000FF76D0F1FF378E410AD26FF07F45D0F172
:10138000FF308D4101D2105DF0BDD05C0830F0BD62
:10139000FF23D0F1FF308B4102D2505D1030F0BD01
:1013A000505C1830F0BD4FF6FF740023241A8B41B7
:1013B00011D26FF07F440023241A8B4105D2000E16
:1013C00040EA0120105C2030F0BD000C40EA0140F2
:1013D000105C2830F0BD0023D0F1FF048B4105D212
:1013E000000A40EA0160105C3030F0BD105C38301B
:1013F000F0BD08B100F036B80820704708B100F021
:1014000031B81020704708B100F02CB82020704788
:1014100000B550EA01020BD0C243521CCB4343F14A
:10142000000310401940FFF798FFC0F13F0000BDD6
:10143000402000BD80040020300000207E720008A3
:1014400072B6704762B67047EFF3108072B670479D
:1014500080F31088704730BF704720BF7047B0FAE4
:1014600080F0704790FAA0F0B0FA80F0704790FAE0
:10147000A0F07047A0F14101192902D9613819285B
:1014800001D80120704700207047A0F141011929BF
:1014900005D92039192902D93038092801D8012065
:1014A0007047002070476138192801D80120704723
:1014B000002070474138192801D8012070470020CA
:1014C00070473038092801D8012070470020704744
:1014D0003038072801D80120704700207047A0F15C
:1014E0003001092905D91139052902D961380528A2
:1014F00001D80120704700207047202803D0092818
:1015000001D0002070470120704720280BD00D2803
:1015100009D00A2807D00C2805D0092803D00B28A9
:1015200001D0002070470120704720385E2801D884
:10153000012070470020704721385D2801D8012024
:10154000704700207047A0F120015E2916D820289E
:1015500014D00D2812D00A2810D00C280ED009283B
:101560000CD00B280AD021391A2907D320391A297F
:1015700004D330380A2801D3012070470020704777
:1015800041B2002901DB1F2803D97F2801D00020A8
:10159000704701207047A0F14101192900D820307F
:1015A000C0B27047A0F16101192900D82038C0B23B
:1015B000704700B50B46FFF7F5FF02461846FFF7E8
:1015C000F1FF824201D1012000BD002000BD0000DA
:1015D000FD48FE490246C0E9001200218160C16059
:1015E000016141618161C16101620163C162416266
:1015F00000F148018163C1634FF48061016441647B
:10160000F3480260704710B500231C46641C41EA91
:101610000323042CFAD310F0030404D109E0521E72
:1016200000F8011B641C22B1042CF8D301E008C0AF
:10163000121F042AFBD202E000F8011B521E002AEE
:10164000FAD110BD0A460021DDE730B4814202D94B
:1016500030BC00F0C5BD10441144401E491E431A61
:10166000042B28D300F0030301F00304A34201D1AB
:10167000012400E00024F4B1032B07D109E05B1E34
:1016800011F8014900F801495BB2521E0AB1002B62
:10169000F5DAC01EC91E04E051F8043940F80439D7
:1016A000121F042AF8D2C01CC91C04E011F8013929
:1016B00000F80139521E002AF8D130BC704770B5CD
:1016C000034662B16BB161B113441144012003F0D0
:1016D000030401F00305AC4205D1012504E001201B
:1016E00070BD002070BD0025DDB1BCB113F8015DF7
:1016F00011F8016DB54200D00020521E641E012871
:10170000F0D1002AF1D109E053F8044D51F8045DFD
:10171000AC4200D00020121F01280AD1042AF3D2C3
:1017200007E013F8014D11F8015DAC4200D0002034
:10173000521E0128D6D1002AF3D170BD30B5C36B3B
:10174000B3FBF2F402FB14340CB1121B00E00022D4
:10175000446C11448C4201D2002030BD5D18611AE6
:10176000C5631A444164104630BD10B5B0FBF3F4B4
:1017700003FB140000B1181AB2FBF3F403FB1424AA
:101780000CB11B1B00E0002310441A44491E02FB4D
:10179000010010BD2DE9FC5F1F4614008A468346F8
:1017A00000D101AC0020884E2060FFF74DFE009074
:1017B00053465A460121D6F84480F06BFFF7D5FF17
:1017C000054642F2E279404506D90098FFF740FE0F
:1017D000A5EB0800206012E0524659463046FFF75C
:1017E000ADFF0600009807D0FFF732FE42F21070FE
:1017F00038803046BDE8FC9FFFF72AFE2560A7F839
:1018000000900020F6E72DE9F04116460D4604460B
:10181000FFF71AFE6368996B01B96B4BDF6B5C6C69
:10182000FFF716FE012D06D9B7FBF5F005FB10708A
:1018300000B1281A241A42F2107030802046BDE808
:10184000F0810A4601466048DDE7B8B1614A0260AE
:10185000002242608260C260026142618261C261B4
:101860000262826242630263C26242628263C26354
:101870000264426442F210700880704742F21170B4
:10188000FAE72DE9FF4F89B08A46DDE91879044669
:1018900007B906AF0020386049462046FFF7D5FF5C
:1018A000B9F80010A1F51C50103859D1484800680B
:1018B00090B10020DFF810810290FFF7C5FD059080
:1018C0005FEA0A000BD002460B9800261318404826
:1018D000B3465B1E056848E042F2E7713EE0D8F887
:1018E0003C1003910423C34645461A460C990398BD
:1018F000FFF73BFF0399049008440890DDE91623A5
:101900000C99FFF732FF009000990498464608446E
:101910000290D8F844100191884261D90598FFF7E8
:1019200097FDDDE901103CE0A86B504506D1D5F8E4
:1019300040C00B998C4501D12E4618E0296C01441A
:10194000491E834213D3824203D98B4201D98A4272
:1019500009D80598FFF77CFD42F27F71A9F80010C5
:101960000DB0BDE8F08FAB46ED68002DDCD136B987
:10197000C4E90EAA0B9820640B98264660640423E1
:101980001A46D8F83C000C99FFF7EFFE0490D8F8FF
:1019900044100191884206D90598FFF759FD019935
:1019A0000498401A34E0F06B0890DDE916230C9996
:1019B000FFF7DBFE0090716C0191884210D9059809
:1019C000FFF746FD08E00000900400204845415024
:1019D000340000204E4F4E45DDE90001401A46E03C
:1019E0000C9804228000014601904046FFF7A6FEB5
:1019F000039008B100201CE0D8F844400598FFF798
:101A000027FDBAF1000F07D00198A04200D9001BB2
:101A1000386042F2E27054E00298F6E7DDE916120F
:101A20003046FFF78BFE90B1039941F8280008F18A
:101A300001000C9980468842F0D3A64220D1C4E927
:101A400002B55FEA0B0016D0CBF80C4015E0F56B41
:101A5000746C0598FFF7FCFC0C98DDE91623A0EBED
:101A600008012846FFF781FEA04200D9001B38601C
:101A700042F2D87025E06E4804603DB1AC6005E0EC
:101A80007069C4E90460746100B104616948C4E923
:101A900000060898A061009908980844401EE0617B
:101AA000039820620098A0621798606316982063DC
:101AB0000C98E0620C9860620598FFF7C9FC42F24E
:101AC0001070A9F800004BE770B50D460446FFF70B
:101AD000BBFC646AFFF7BCFC42F210702880204611
:101AE00070BD70B515460446FFF7AEFC616A49B19A
:101AF000E26A91420BD9FFF7ABFC42F29570288065
:101B0000002070BDFFF7A4FC42F2DE70F7E7491E2B
:101B10006162226A52F82140FFF79AFC42F210708B
:101B20002880204670BD70B514460E460546FFF766
:101B30008BFCEA6A911B491E42F295768A4202D9D1
:101B40006A6A8A4204D9FFF783FC2680002070BDB0
:101B50002A6A52F82150FFF77BFC42F21070208075
:101B6000284670BD2DE9F04116460D460446FFF7A4
:101B70006BFCE76A626A8446BA4204D3FFF768FCEA
:101B800042F2DD701EE04FF0000E1346206A04E0C2
:101B900050F82310A94205D05B1C9F42F8D8BEF133
:101BA000000F03D050F8221040F82310D4E90801A8
:101BB00040F82150606A401C60626046FFF748FCB4
:101BC00042F2107030803AE62DE9F04115460E469B
:101BD00004464FF0FF37FFF737FC0246E16A606AC0
:101BE000884205D31046FFF733FC42F2DD701CE05B
:101BF0004FF0000C05E0236A53F82030B34205D0C3
:101C0000401C8142F7D8BCF1000F09D00C1A1046D5
:101C1000641EFFF71DFC42F21070288020460EE67D
:101C20001046FFF715FC42F288702880384606E619
:101C300034000020504F4F4C002201E0401C521C49
:101C400018B103780BB18A42F8D3104670474FF0B1
:101C5000FF31F1E730B5002811D089B103460024E7
:101C600005E0491C03F8015B641C4BB141B10D78E0
:101C70000DB19442F5D3944201D20021197030BDC8
:101C8000002030BD4FF0FF32E4E730B5002816D019
:101C9000B1B1002A13D0034601E05B1C10D01C78C0
:101CA000002CFAD104E0491C03F8015B641C3BB131
:101CB00031B10D780DB19442F5D30021197030BDCA
:101CC000002030BD4FF0FF32DFE7F0B532B330B166
:101CD00011B304460B46401C491C002508E0E9B13D
:101CE00008784042F0BD401C491C5B1C641C6D1C04
:101CF00026781F78BE4204D11EB110B109B19542B9
:101D0000F1D395420AD0F4B2FAB2944201D0B01A9B
:101D1000F0BD1EB10028E2D00078F0BD0020F0BD7B
:101D20004FF0FF32D1E72DE9F0475FEA020A41D0D8
:101D300070B181B10446461C0F464D1C0078FFF778
:101D40002AFC81463878FFF726FC4FF0000811E0A6
:101D500079B3087829E0007821E008F1010814F847
:101D6000010F6D1C761C7F1CFFF715FC814638782F
:101D7000FFF711FC814505D1217819B116B10DB1DC
:101D8000D045EAD3D04515D04946814503D0A9EBCB
:101D90000000BDE8F0870800FBD026B13078BDE830
:101DA000F047FFF7F8BB25B12878FFF7F4FB404276
:101DB000EFE7FFE70020ECE74FF0FF32B3E710B5A5
:101DC000002812D081B1002303E0401C03F101037D
:101DD0000BD004781CB1944201D08B42F5D38B42D6
:101DE00002D2E1B2914200D0002010BD0A464FF06D
:101DF000FF31E4E730B5154604000FD071B1491E3C
:101E0000FFF71AFF20180AD000E0401EA04202D0BF
:101E10000178A942F9D10178A94200D0002030BD53
:101E20000A464FF0FF31E5E730B5002803D00BB18B
:101E3000044607E0002030BD8D4200D122705B1EB9
:101E4000641CF8D02578002DF5D0002BF4D130BDDE
:101E50004FF0FF33E8E72DE9F0418C46060032D021
:101E6000BCF1000F2FD072B3501C01D0511C01E007
:101E70004FF0FF310D4611463046FFF7DDFE0446B8
:101E800029466046FFF7D8FE050014D0A5421AD8AF
:101E9000301911D01CEB05000ED0671B002430193F
:101EA00080462A466146FFF710FF010006D0002059
:101EB000641C28B106E03046BDE8F0810120F7E758
:101EC000BC42ECD909B10020F6E74046F4E74FF0F8
:101ED000FF32C0E72DE9FF5F074611980E9D1446BB
:101EE000894600286CD00026B246B9F1000F00D117
:101EF0000126A01E232800D3012615B32846FFF78C
:101F000014FB01281CD1302D1BD0A5F13000C1B22B
:101F10000F98012802D0A5F1410001E0A5F1610070
:101F2000C0B20A2C02D8A14206D307E00A2903D383
:101F3000A4F10A01884201D2012000E0002000B192
:101F40000126119A56BBB846012003E0B8FBF4F80D
:101F5000401CC0B2A045F9D20399012900D000214C
:101F600000EB010CCC4518D84FF0000B4B46484510
:101F700000D318464DB1A9EB0000401A4B4610F0B3
:101F8000FF0F04D0302D04D001E00844C3B200207C
:101F900000E0012082460EB901E001264B4610996F
:101FA000D01809B1002101700021401E04E056B193
:101FB0003F2200F80129491C9942F8D39EB3002022
:101FC00004B0BDE8F09F27B919B1039A012A16D0D1
:101FD00024E0B7FBF4F204FB1272D2B20A2A01D257
:101FE000303207E0DDF83CC0BCF1010F01D03732E0
:101FF00000E05732B7FBF4F700F80129DBE75AEAB3
:102000000B0205D0BAF1000F08D05A1E914205D13B
:102010002D2200F801294FF0010BCCE7002DCAD08A
:1020200000F80159C7E7FFE71198C9E77FB50DF13F
:10203000200C9CE870008DE878000023FFF74AFF31
:1020400004B070BD2DE9FF411C46DDE90B650A9F18
:10205000002802DA4042012300E00023CDE90047D6
:10206000CDE90265FFF736FF04B025E72DE9FF5FF4
:102070001E4615465FEA0109824601D10DF10809A5
:10208000C9F800A00E9808B903A80E9000210170AD
:102090005FEA0A0003D0012D01D0242D01D90020D0
:1020A0008EE70446007801E014F8010FFFF72DFADF
:1020B0000128F9D020782B2803D02D2805D0002026
:1020C00007E04FF0000B641C04E0012E00D1641CFB
:1020D00001208346019425B1082D11D0102D22D165
:1020E00012E02078302801D00A251CE014F8010FF6
:1020F000582803D0782801D0082514E010250CE0DA
:10210000207830280ED00EE0207830280BD114F83B
:10211000010F582801D0782805D16078FFF7DFF942
:10212000012800D1641C0026B04600962778384666
:10213000FFF7ABF9012824D13846FFF7C2F901288F
:102140000CD03846FFF7AFF9012809D0373FF9B274
:10215000A94216D2B8F1000F04D00EE0303FF6E7E6
:10216000573FF4E71D4850F82500B04203D306FB63
:1021700005168E4201D24FF001080098641C002819
:10218000D4D0B8F1010F01D14FF0FF36019884424D
:1021900002D0C9F8004001E0C9F800A00E9930460D
:1021A00081F800B00CE708B500230093FFF75EFF4D
:1021B00008BD1CB501AB00930123FFF757FF9DF845
:1021C00004204FF0004122B1884200D2414208462B
:1021D0001CBD8842FCD36FF000401CBD807300081A
:1021E000002800D17047002900D17047002A00D193
:1021F00070472DE9F81F00F0030301F00304A34228
:1022000011D1C3F1040303F00303012B1DD3012AF1
:1022100000D2F2E011F8014B00F8014BA3F10103E9
:10222000A2F10102F1E700F0010301F00104A34271
:1022300000D094E0012B44D311F8014B00F8014B7E
:10224000A3F10103A2F10102F4E7B2F5B47F26D3B2
:10225000B1E8F81FA0E8F81FB1E8F81FA0E8F81FE0
:10226000B1E8F81FA0E8F81FB1E8F81FA0E8F81FD0
:10227000B1E8F81FA0E8F81FB1E8F81FA0E8F81FC0
:10228000B1E8F81FA0E8F81FB1E8F81FA0E8F81FB0
:10229000B1E8F81FA0E8F81FA2F5B472D5E7282A24
:1022A00006D3B1E8F81FA0E8F81FA2F12802F6E76C
:1022B000042A06D351F8043B40F8043BA2F104027F
:1022C000F6E7202A42D331F8023B20F8023B31F8EE
:1022D000023B20F8023B31F8023B20F8023B31F888
:1022E000023B20F8023B31F8023B20F8023B31F878
:1022F000023B20F8023B31F8023B20F8023B31F868
:10230000023B20F8023B31F8023B20F8023B31F857
:10231000023B20F8023B31F8023B20F8023B31F847
:10232000023B20F8023B31F8023B20F8023B31F837
:10233000023B20F8023B31F8023B20F8023B31F827
:10234000023B20F8023BA2F12002BAE7022A06D3A0
:1023500031F8023B20F8023BA2F10202F6E7102A14
:1023600042D311F8013B00F8013B11F8013B00F8A2
:10237000013B11F8013B00F8013B11F8013B00F86B
:10238000013B11F8013B00F8013B11F8013B00F85B
:10239000013B11F8013B00F8013B11F8013B00F84B
:1023A000013B11F8013B00F8013B11F8013B00F83B
:1023B000013B11F8013B00F8013B11F8013B00F82B
:1023C000013B11F8013B00F8013B11F8013B00F81B
:1023D000013B11F8013B00F8013B11F8013B00F80B
:1023E000013BA2F11002BAE7012A06D311F8013B22
:1023F00000F8013BA2F10102F6E7BDE8F81F7047C3
:1024000070470000FE4CFFF71FF82168491C21604F
:10241000FFF71EF804F06EFBF5E700B5F84A89B047
:10242000002111600B2205910691CDE90720F548A6
:10243000F54AF64B006812681B680292CDE9030169
:102440003F20CDE900030023AFF24702F0A1F54899
:1024500002F03DFE09B000BD0020F34B024600EB48
:10246000400103EB8101401C0A810A60C0B24A604E
:102470004028F4D3704710B5044604F041FBEB4804
:1024800000220A210270EA480270EA480270EA4813
:102490000260EA480260EA480270EA480270EA48CC
:1024A0000270EA480260EA480260EA480260EA48CC
:1024B0000270EA480068B0FBF1F0E9490860E949B8
:1024C000086830B1E848006818B1096804C0491EBE
:1024D000FCD1E6480260E6480260E6480260E64851
:1024E0000260E6480260E6480260E6480260E648AC
:1024F000027001F021FFFFF7AFFF204601F083F8E3
:102500002088002841D1204601F0CFFA20880028F9
:102510003BD1204601F0F2FA2088002835D1204630
:1025200001F0F3FE208800282FD1204602F030FA77
:102530002088002829D1204602F0D8FC20880028D5
:1025400023D1204603F04EFC208800281DD12046D0
:1025500001F058F92088002817D12046FFF75DFFC9
:102560002088002811D1204603F03CFD2088002857
:102570000BD1204604F02EFA2088002805D100F067
:10258000A1FCBDE81040FFF73BBF10BDA848007894
:10259000012805D1A5490878FA2801D2401C087005
:1025A0007047A34810B5007801282BD1FEF74CFFE7
:1025B0009E490446087800B3401E10F0FF000870E2
:1025C0001BD19C480078C0B901F0BFFE9D4908703E
:1025D000954900EB400051F8200098490860964961
:1025E0000968884209D050F8901F491C0160A7482B
:1025F0000168491C016004F0FDFD2046BDE8104063
:10260000FEF726BF10BD894810B50078002824D1F8
:1026100088480078002820D1FEF716FF044601F014
:1026200094FE88490870804900EB400051F8200072
:102630008249086080490968884209D050F8901F93
:10264000491C016091480168491C016004F0CDFDFE
:102650002046BDE81040FEF7FBBE10BD754810B522
:102660000078012803D1FEF7F3FD7849086010BD1A
:1026700070B504466D48007810B146F6625019E016
:102680006B480078012802D045F6896012E0694D58
:102690002878FA2802D345F209200BE0FEF7D4FE91
:1026A00006462878401C2870FFF7D8FF3046FEF712
:1026B000CFFE0020208070BD5E4810B50078002855
:1026C0000ED1FEF7C5FD61490968401A60490A68E4
:1026D000824200D208605F490A68824200D20860E4
:1026E00010BD70B504465148007810B146F66550EB
:1026F00023E04F480078012802D045F689601CE0AD
:102700004C4E307870B1FEF79FFE05463078401E83
:1027100010F0FF00307008D02846FEF799FE46F60C
:1027200063500AE046F6645007E0FFF7C5FF28460D
:10273000FEF78EFEFFF767FF0020208070BD2DE9B9
:10274000F04116460C460746FEF77EFE424900253C
:10275000012F01D00D7001E001220A7040490CB137
:102760000C6005E03D4A0A231268B2FBF3F20A60EE
:10277000FEF76EFE3580BDE8F08110B501890029B5
:1027800014D0012912D00024022907D0D0E9001367
:10279000CA681461C1E90343D96005E0D0E90012B9
:1027A000C1E90342C2E90314C0E9002110BD70B5BC
:1027B00004461E48007810B148F2D14077E01D4829
:1027C000007810B146F6635071E023480078012884
:1027D00002D046F67B106AE0FEF736FE0646184841
:1027E0001149007800EB400001EB800528890228A0
:1027F0004ED23046FEF72CFE46F67A1057E0000027
:102800005C0000202874000824740008207400086C
:1028100075432F4F532D4949492049646C65205415
:1028200061736B00681B0020FC1C0020600000200E
:1028300061000020A8000020E8000020EC0000203B
:102840008E0000208F000020900000209C000020BF
:10285000A0000020A4000020B00000206074000848
:10286000AC0000204C7400084874000840000020B0
:1028700044000020480000204C00002050000020B0
:102880005400002058000020C6000020BC0000209A
:102890002846FFF772FF2868416D09B9FB490968AE
:1028A00081653046FEF7D4FDFFF7ADFE00202080A5
:1028B00070BD70B5F64D0446287818B145F68A60AB
:1028C000208070BD01F041FDF2490870F2490870A6
:1028D000F24900EB400051F82000F1490860F1494D
:1028E00008600120287004F06FFC43F69920E7E7A8
:1028F0000021018047F25C60704738B14268C1F83E
:10290000C02081688968096AC161704791F8340004
:10291000022803D0072803D0E3A002E0E3A000E0F0
:10292000E4A0C1F8C000704730B58A68002592F86D
:10293000374002891AB1521C028102680BE0012261
:1029400002814D600D60016014E0936893F83730A8
:10295000A34203D85268002AF7D107E032B11368C6
:1029600053B1C1E900325960116030BD4D60426819
:102970000A605160416030BD1160C1E900520160E0
:1029800030BD10B5C2870024234601630EE04B60C2
:1029900041F8103B641C41F8103BA4B241F80C3CD8
:1029A00021F8083C41F8043C41F8180C9442EED35D
:1029B00010BD70B5044690F83700B84900EB4000F0
:1029C00001EB8001D4E90320002540B10B895B1E97
:1029D0000B81C26092B110612561E56070BD2AB1C2
:1029E0000889401E088115610A60F5E70D810D60B8
:1029F0004D6094F8370001F0C6FCEDE74860EBE766
:102A000038B50446022531B16B46022203F023FBA0
:102A1000BDF8000028B184F836502046FFF7C9FF02
:102A200038BD032084F83600F7E72DE9F0419D4DCD
:102A300007460C4628680026194680F8342080F89E
:102A40003560FFF7DDFF64B1FC6004F10806012288
:102A500039462868FFF795FF39463046FFF764FF8F
:102A600002E02868C687066320462968BDE8F04171
:102A700043E710B502890024012A0BD00A6862B12D
:102A80004B6873B153601A600289521E02814C6018
:102A90000C6010BD04604460F6E74A681460026090
:102AA000F2E754604260EFE770B50646C58F046BED
:102AB00007E0E06821460830FFF7DBFF6D1EADB28E
:102AC0002034002DF5D10020F087306370BD10B5A3
:102AD0000B6BC98F08E0DC68844202D1DA611861AF
:102AE00010BD491E89B220330029F4D110BD90F8E1
:102AF00037106A4A01EB410102EB810100230A8988
:102B000042B1521C0A810A68C0E903230A681061B5
:102B10000860704701220A81C36003610860486051
:102B2000704790F837105D4A01EB410102EB8101DB
:102B300000230A893AB1521C0A81C3604A680261C3
:102B4000D0604860704701220A81C3600361086059
:102B5000F7E710B5044690F8370001F006FC4E493F
:102B600094F8370009788842204602D1BDE8104029
:102B7000D7E7BDE81040BAE710B5044603F05CF9AA
:102B800094F83610490703D42046BDE81040E0E72A
:102B900010BD2DE9F041064691F8360000270C469D
:102BA00015464FF00108082835D2DFE800F034342C
:102BB000040434341A1A94F83400032803D121464B
:102BC0003046FFF784FFE765A4F86070256416B10E
:102BD0002046FFF769FF2046FFF7CEFF84F83670E6
:102BE00015E094F83400032803D121463046FFF75E
:102BF0006EFFE765A4F86070256416B12046FFF704
:102C000053FF204603F018F9042084F8360084F8B6
:102C1000358084F83470AEE529A2C1F8C0208168FF
:102C200011B18968096A00E025A1C161704770B5DA
:102C300080F83710C58F046B0FE0E668308A0836DD
:102C4000012807D921463046FFF713FF21463046B9
:102C5000FFF76AFE6D1EADB22034002DEDD170BDC0
:102C6000002101604160018170470289521C02818C
:102C700002684A6000220A60026802B111600160C5
:102C80000289012A00D1416070470000AC00002099
:102C9000610000208F0000208E000020FC1C00201E
:102CA000EC000020E8000020200000005461736B5D
:102CB000205100005461736B2053656D00000000CB
:102CC0002000000010B50B6BC98F08E0DC6884425F
:102CD00002D1DA61186110BD491E89B22033002982
:102CE000F4D110BD2DE9F0410C4691F836100025C5
:102CF00002261746082933D2DFE801F032320404F5
:102D00003232191994F83410032903D13A46214676
:102D1000FFF7D8FFE565A4F8605020462764FFF769
:102D2000C3FE2046FFF728FF84F8365014E094F8DD
:102D30003410032903D13A462146FFF7C3FFE56566
:102D4000A4F860502046276403F076F82046FFF789
:102D5000ABFE042084F8360084F8356084F83450E3
:102D600009E570B50C6B049DC98F0AE0E6688642E0
:102D700004D1C4E904022383E56170BD491E89B210
:102D800020340029F2D170BDF8B50C46054691F803
:102D900036100026069808293BD2DFE801F03A3ABF
:102DA00004043A3A202094F83410032911D0E26543
:102DB000A4F86030206435B12046FFF775FE214647
:102DC0002846FFF729FF2046FFF7D6FE84F8366035
:102DD0001BE0009021462846FFF7C3FFEBE794F87D
:102DE0003410032916D0E265A4F860302064204630
:102DF00003F022F835B12046FFF756FE214628465B
:102E0000FFF70AFF042084F8360084F8356084F860
:102E10003460F8BD009021462846FFF7A2FFE6E7A0
:102E200010B5FEF711FB1F490446002008701F482B
:102E30001D49016051F8900F401C08601C4908684A
:102E4000401C086004F0D1F92046BDE81040FEF7B0
:102E5000FFBA70B5054617480078012820D1FEF763
:102E6000F3FA04462868B0B11349884213D0816D43
:102E700011B1491E81650ED1288902280BD30F4854
:102E8000007840B92846FFF778FC2868416D09B9F9
:102E90000B49096881652046BDE87040FEF7D8BA45
:102EA00070BD00008F0000202C1C0020EC000020D2
:102EB000BC000020B0000020681B0020A8000020FB
:102EC000AC000020704700000023FF4AFDA14361D1
:102ED000C161116819B181614861106070478361F7
:102EE000FBE72DE9F0410446F84890460F4600788C
:102EF0001D4610B142F6E16025E014B3FEF7A4FAD6
:102F0000F34E3178491C3170FEF7A2FAF148C4E95A
:102F100000070027C4E9088704F10800FFF7A0FEB6
:102F20002046FFF7D1FFEC490888401C0880FEF7D7
:102F30008BFA3178491E3170FEF78AFA2F80BDE88E
:102F4000F08145F6C3501880F9E7E44902C0E4A1D6
:102F500002C000218161FFF783BED0E90521002373
:102F60002AB151B191614A61836143617047D64A88
:102F7000116001B14B61836170479361F5E72DE901
:102F8000F05F8046D14814468946007810B143F27C
:102F9000C92013E0B8F1000F06D0080007D00129BE
:102FA00005D045F6256009E045F6C35006E0C9495D
:102FB000D8F80000884205D045F6C45010800020A3
:102FC000BDE8F09FFEF740FAC14F3978491C3970CF
:102FD000FEF73EFAB8F810505FEA0900DFF8F8B2E1
:102FE000DFF8049308F10806AA460AD0012842D067
:102FF000FEF72AFA3978491E11F0FF0139705DD0C9
:1030000064E05FEA0A0008D0FEF71EFA3978491E2C
:1030100011F0FF0139701FD026E04046FFF79DFFF9
:10302000BBF800104046491EABF80010FFF78DFFBB
:10303000FEF70AFA3978491E11F0FF01397007D1FD
:10304000B9F8001021B1FEF703FAFFF7E9FE01E03D
:10305000FEF7FEF900200BE0B9F8001021B1FEF7F1
:10306000F7F9FFF7DDFE01E0FEF7F2F947F25F1036
:1030700020805046A4E7FEF7EBF8814607E0306871
:103080004A4681684046FFF72DFE6D1EADB2002D09
:10309000F5D14046FFF761FFBBF800104046491EDE
:1030A000ABF80010FFF751FFFEF7CEF93978491E53
:1030B0003970FEF7CDF9FFF7A6FACBE7B9F80010A3
:1030C00021B1FEF7C5F9FFF7ABFE01E0FEF7C0F94D
:1030D00045F62560CCE730B4844C029D246844F862
:1030E000802F0022238162602B4630BC0122FFF733
:1030F0009CBC2DE9FF4F05468BB07448DDE9186490
:1031000000781F46894610B146F2AE1007E1ADB116
:1031100048F20101781A8F4229D019DC40F20111DE
:10312000A7F201108F4222D00BDC012F1FD0022FFB
:103130001DD0042F1BD0082F16D118E045F6C35020
:10314000EDE0012813D0032811D007280CD10EE0A0
:10315000B0F5807F0BD0F4DDA0F58070013806D08B
:10316000022804D0062802D045F62560D7E0594948
:103170002868884202D045F6C450D0E0F80501D551
:10318000012000E0002080464FF0000B0EB1C6F891
:1031900000B007F00F010991FEF756F909994C4A62
:1031A0004FF0010E012934D0022938D0042902D071
:1031B00008296ED123E0296A01EA090ACA4524D008
:1031C00011E021EA0A0135E0484A1268C2F884A0F9
:1031D0000EB1696A3160FEF73BF9A4F800B05046C1
:1031E0000FB0BDE8F08F390426D5FEF731F946F26D
:1031F000B01094E0FEF72CF946F663508FE0296A90
:1032000001EA09035FEA030AEDD0B8F1000FDBD051
:10321000D7E7296A29EA010ACA4506D0E3E7296AFD
:1032200029EA01035FEA030ADDD0B8F1000FCBD031
:1032300041EA0A012962C7E711780029DAD19246EA
:1032400082F800E0FEF704F90D9800903B464A46EC
:10325000294601A8FFF73FFFFEF7F6F89AF800109D
:10326000491E8AF80010FEF7F3F8FFF7CCF9FEF7D5
:10327000EBF81E4B1A6892F8351059B1012937D076
:10328000022945D003293BD0FEF7E2F846F62E602E
:1032900045E014E00EB1116C3160A4F800B019687B
:1032A0005F46B8F1000FD1F8846041D00999012937
:1032B0003BD0022939D0042934D0082932D0FEF776
:1032C000C7F851E7200000007800002060000020CF
:1032D000A8000020464C41477C0000204E4F4E4540
:1032E0003F464C41470000006C000020E8000020F1
:1032F0000EB1116C3160FEF7ABF846F2A9100EE08A
:103300000EB1C6F800B0FEF7A3F847F2D92006E0E8
:103310000EB1116C3160FEF79BF845F6C25020806B
:1033200000205DE7296AB14301E0296A314329623F
:10333000FEF78EF82780304652E72DE9F05F804691
:10334000B4480F461446007810B146F2AA1012E0B5
:10335000B8F1000F0DD04FF4807A77B157450CD0FB
:10336000B7F5004F09D0B7F5014F06D045F62560F7
:1033700001E045F6C350108021E0A749D8F80000CD
:10338000884202D045F6C450F5E7FEF75DF8B8F87C
:10339000101008F1080569B1DFF8809299F8002053
:1033A000521C89F80020FEF753F80026FDF750FF65
:1033B000834610E0FEF74CF846F2AB102080002068
:1033C000FEE528685A4681684046FFF7E2FB761C16
:1033D000B6B2574502D128890028F2D1FEF734F859
:1033E00099F80020521E89F80020FEF731F83804C1
:1033F00001D4FFF708F9002020803046E0E570B5E1
:1034000004468448007820B146F2AE1020800020A7
:1034100070BDFEF719F882490968D1F88450FEF7AB
:1034200017F800202080284670BD70B50025C0F830
:10343000841080F8355080F834500446026490F8C7
:10344000360008280ED2DFE800F00D0D04040D0D43
:103450000A0A2046FFF790FB84F8365002E0042069
:1034600084F836002046BDE87040FFF71DBB2DE90B
:10347000F0479A4690460D460446089EFDF7E4FF45
:1034800001465FEA080022D0012807D0B0F5004FBE
:103490001DD06FF4004218EB020F12D1206AA8432E
:1034A000C4E9080A208A04F108054FF0000988B130
:1034B0005A4F3878401C38700846FDF7C9FF2D6810
:1034C00041E00846FDF7C4FF45F625605FE0206A4D
:1034D0002843E5E70846FDF7BBFFA6F80090206A01
:1034E000BDE8F08790F888106D6801F00F010129A0
:1034F00018D002291ED004290AD008290DD0FDF7C2
:10350000A3FF3978491E11F0FF01397033D03AE03A
:10351000216AD0F88020114009E0216AD0F880208B
:1035200011400BE0D0F88010236A0A4699438A4282
:1035300005D007E0D0F88010226A914311B15246BD
:10354000FFF773FF15B1A8680028CBD1FDF77CFF0A
:103550003978491E3970FDF77BFF5FEA084001D4D6
:10356000FFF751F8FDF770FF246AFDF771FFA6F829
:1035700000902046B4E72B49098821B1FDF768FF88
:10358000FFF74EFC01E0FDF763FF43F6FF203080BC
:103590000020A5E72DE9FF411546884606001C4698
:1035A0000DD07DB1012D0DD0B5F5004F0AD06FF4CF
:1035B0000040C54206D045F62560188019E045F662
:1035C000C350FAE7144F3068B84202D045F6C450F1
:1035D000F3E7FDF73DFE03460E48007860B1CDE904
:1035E0000234CDE9008500231A463146384600F002
:1035F0001FF8002004B0A2E42A4641463046009459
:10360000FFF735FFF6E7084A00211160074A1180ED
:103610000180704760000020464C4147A800002010
:10362000E80000206C000020780000207C000020D2
:103630002DE9F05F1E46DDE90AAB90460F46814654
:103640000D9CFDF701FFA049A04A05460888128895
:1036500090422BD2401C80B208809D490A88824249
:1036600000D208809B4A1068C0F80090C0E9027838
:103670000682C0F814A0A0F818B00C99C161406887
:10368000106095480121018194490160416000204A
:1036900000F06BFE9248007808B192490870002053
:1036A00020802846BDE8F05FFDF7D2BE8E48018835
:1036B000491C018044F25360F2E73EB58B4C8C4AC2
:1036C00002AB206801688D1A914245D015DC894A09
:1036D00089182DD0884A891822D0884A891832D072
:1036E000874AD14208D1C169CDE90013038B028A10
:1036F000C168806801F086FF3EBD824969181DD00F
:10370000814A891823D0814AD142F5D1C169CDE9D6
:103710000013038B028AC168806801F08FF83EBDF8
:103720000093028BC36941698068FFF7A0FE3EBD2C
:10373000018BC269806801F014FB3EBD80681946A8
:1037400002F049F83EBD018BC269806822E08068C2
:10375000194602F0B6FA3EBD62485F49007800EBB8
:10376000400001EB8000FFF774FB206802AB0021F2
:10377000C269674802F092F966490868401E08600D
:10378000E9D1654800680860FDF762FD024602ABBA
:103790000021624802F082F93EBD614F4A4C00258B
:1037A000DFF84881FDF750FE06462088E8B1304634
:1037B000FDF74EFEFDF74CFD0646FFF77EFFFDF7D9
:1037C00047FD3968801B814200D23860FDF73CFE1E
:1037D000D8F800205268C8F800202188491E2180AE
:1037E000FDF736FE002DDDD0D9E73B4900200881EA
:1037F0000860486000F0C7FD3046FDF729FEFEF77F
:1038000002FFCCE7F0B53849464D89B000240C8062
:10381000296831B12D4E3188022905D244F2546114
:1038200035E044F2526132E03D4900233E4F0C60E6
:10383000296801F1200210E041F8087B5B1C41F887
:10384000084B9BB241F8044C21F8104B41F80C4C4A
:1038500021F8084C41F81C2C2032B6F800C0634512
:10386000EAD32A6841F81C2C1A490A601F490A60E9
:1038700015492E4A0C8016490C80116851B12C490B
:103880002C4D0B682D68AB4207D244F25661018083
:1038900009B0F0BD44F25561F9E70323059406949D
:1038A000CDE9073008682449126800230968CDE98A
:1038B00003040094CDE90121AFF221121FA10748B2
:1038C00001F005FCE4E700006C000020167400081D
:1038D0006E00002064000020FC1C00202C1C002036
:1038E0008E00002090000020700000206800002062
:1038F0005449434BADBAB2BE0DF90BFAF2F8F7FFDB
:103900000006F6FF00F7FDF700FFEFFF03FE0FFED6
:10391000FC1F0020E4000020E0000020C020002068
:1039200074000020307400084E4F4E453874000873
:10393000407400085C7400083C74000875432F4F05
:10394000532D4949492049535220517565756520C9
:103950005461736B00000000574B002282611968AC
:1039600019B1C161886118607047C261FBE72DE938
:10397000F05F04465148DDE90A750078984616461E
:103980008B4610B145F2B96014E045F2BB615EB1FF
:10399000B8F1020F01D2481C0CE045F2C160042FBF
:1039A00008D316F0030F02D02980BDE8F09F17F06E
:1039B000030F01D02880F8E7A8F101018BB232464D
:1039C000002104E0D0191060491C024689B29942D6
:1039D000F8D34FF0000AC2F800A0FDF735FDDFF87C
:1039E000E09099F80010491C89F80010FDF730FDAF
:1039F000344884E84108E660A4F81480A4F81280F2
:103A000027822046FFF7A8FF2F480188491C018024
:103A1000FDF71AFD99F80010491E89F80010FDF70E
:103A200017FDA5F800A0C0E770B504000D460ED044
:103A3000FDF70AFDA18A71B1E668491E3268E260AD
:103A4000A182FDF705FD00202880304670BD45F2BB
:103A5000BF60088004E0FDF7FBFC45F2C2602880EF
:103A6000002070BD70B50E46040015460BD06EB137
:103A7000FDF7EAFCA18A628A91420BD3FDF7E8FCCC
:103A800045F2BA600FE045F2BF6001E045F2BE606A
:103A9000108070BDE1683160E660A18A491CA18296
:103AA000FDF7D6FC0020288070BD034A002111607C
:103AB000054A1180018070478000002060000020CE
:103AC000A80000204D454D208400002010B5491E5F
:103AD0008CB2002100F110020B4608E0E0E802235E
:103AE000491C20F8083B89B240F8043C1032A1423E
:103AF000F4D3036043600381C36010BD70B5524DC1
:103B00000446286880B1514E308880B181B228685F
:103B1000FFF7DCFF4E482968016031888180002171
:103B2000C1800181218070BD45F21E7001E045F227
:103B30001D70208070BD10B5428992B14449036860
:103B40000C681C6043680B60CB8844891B1BCB80CE
:103B50008B88448923448B800021418181810160CD
:103B60004160104610BD01810021418181810160C9
:103B700041607047F0B544890025CCB1446827897D
:103B800066680F800AB1E168116021684160B9B1CF
:103B90004189491E41812E48016821600460818865
:103BA000491C8180C188491EC1801D803046F0BDFE
:103BB0000D8002B1156046F2925018800020F0BDD1
:103BC00005604581E7E7F0B54489DDE905E605894B
:103BD000AC4202D346F293501EE01D4DAF88CFB1E8
:103BE0002C687F1ED4F800C0C5F800C0AF80EF88F5
:103BF0007F1CBFB2EF80B5F808C0BC4500D22F8152
:103C00004789002557B1DB060CD403681C6025608A
:103C100004600AE045F21D703080F0BD04600123AD
:103C2000446004E043682360446043895B1C438133
:103C300087899BB29F4200D2838161602281C4F850
:103C40000CE03580F0BD00005874000818740008BE
:103C5000F01C00200023FD4AFBA14361C1611168F3
:103C600019B181614861106070478361FBE72DE9FC
:103C7000F0410446F6480F461546007810B142F66A
:103C8000E1602AE03CB3FDF7DFFBF24E3178491CDE
:103C90003170FDF7DDFBF048C4E90007002727621B
:103CA00084F825704020A76284F8240004F10800FD
:103CB000FEF7D6FF2046FFF7CDFFE8490888401CF5
:103CC0000880FDF7C1FB3178491E3170FDF7C0FB5C
:103CD0002F80BDE8F08145F6C3501080F9E7E04938
:103CE00002C0E0A102C00021816141770162402150
:103CF0000177FEF7B5BFD0E9052100232AB151B104
:103D000091614A61836143617047D04A116001B19A
:103D10004B61836170479361F5E72DE9F05F0746DA
:103D2000CB480E461446007810B143F2C92008E093
:103D30002FB146B1012E06D045F6256001E045F6CB
:103D4000C3501080A4E0C4493868884202D045F6C8
:103D5000C450F6E7FDF778FBDFF8F89299F80020F9
:103D6000521C89F80020FDF773FB3D8ADFF8FCA2A6
:103D700007F10808AB4666B1012E48D0FDF764FB99
:103D800099F80010491E11F0FF0189F8001079D050
:103D9000A9E0BBF1000F0AD0FDF756FB99F800101F
:103DA000491E11F0FF0189F8001020D027E03846A5
:103DB000FFF7A1FFA9480188491E01803846FFF797
:103DC0008EFFFDF741FB99F80010491E11F0FF012D
:103DD00089F8001007D1BAF8001021B1FDF738FBBF
:103DE000FFF71EF801E0FDF733FB00200BE0BAF807
:103DF000001021B1FDF72CFBFFF712F801E0FDF7F1
:103E000027FB47F25F1020805846BDE8F09F3E6ACE
:103E100016B396F8370097F8241088421CD096F80D
:103E2000360008281CD2DFE800F004111414111128
:103E300014143046FEF7BDFD97F8240086F83700CD
:103E400000F093FA3046FEF76CFE05E086F8371076
:103E500002E03046FEF7EBFEFDF7FAF9064622E0F7
:103E6000FDF7F2FA99F80010491E11F0FF0189F8E8
:103E7000001008D1BAF8001029B1FDF7E9FAFEF7F1
:103E8000CFFF02E027E0FDF7E3FA46F62D60208041
:103E90000020BAE7D8F80000324681683846FEF7BD
:103EA00021FF6D1EADB2002DF4D13846FFF723FF80
:103EB0006A480188491E01803846FFF710FFFDF768
:103EC000C3FA99F80020521E89F80020FDF7C0FAC5
:103ED000FEF799FB89E7BAF8001021B1FDF7B8FAAF
:103EE000FEF79EFF01E0FDF7B3FA45F625608AE78D
:103EF0002DE9F04F0646564889B01C460078129DC1
:103F000017468B4610B146F2AE10C9E036B147B144
:103F1000B7F5004F05D045F62560C1E045F6C35022
:103F2000BEE04D493068884202D045F6C450B7E043
:103F30004FF000080CB1C4F80080FDF785FA96F840
:103F400025104B4B012281B19A46D6F820C01B6840
:103F50009C451CD1491C86F825100CB1B16A216022
:103F6000FDF776FA45F282709AE01968316291F8AD
:103F7000371086F8241086F825200CB1B16A21602C
:103F8000FDF766FAA5F8008009B0BDE8F08F3904A6
:103F900004D5FDF75DFA46F2B01081E02D490B78AB
:103FA00023B1FDF755FA46F6635079E089460A7069
:103FB000FDF74EFA376ADAF8000097F8372090F8E4
:103FC00037108A421ED997F83600082852D2DFE807
:103FD00000F004131616131316163846FEF7E9FC04
:103FE000DAF8000090F8370087F8370000F0BDF9E4
:103FF0003846FEF77CFD05E087F8371002E03846CA
:10400000FEF715FE5B46042231466846FEF70DFDBD
:10401000FDF71AFA99F80020521E89F80020FDF7E2
:1040200017FAFEF7F0FAFDF70FFADAF8002092F827
:10403000351041B101293BD0022948D003293DD098
:1040400046F62E613FE02DE02000000088000020B1
:1040500060000020A80000204D5554588C0000201E
:104060004E4F4E453F4D5554455800006C000020C2
:10407000E8000020FDF7E8F999F80010491E11F05A
:10408000FF0189F8001007D1A349098821B1FDF784
:10409000DFF9FEF7C5FE01E0FDF7DAF946F62D601F
:1040A000288071E70CB1116C2160A5F800800BE04D
:1040B0000CB1116C216046F2A91104E00CB1C4F8F6
:1040C000008047F2D9212980FDF7C2F95CE70CB1E5
:1040D000116C216045F6C251F5E72DE9F05F80468D
:1040E0008E480F461446007810B146F2AA1012E02E
:1040F000B8F1000F0DD04FF4807A77B157450CD04E
:10410000B7F5004F09D0B7F5014F06D045F6256049
:1041100001E045F6C350108021E08149D8F8000045
:10412000884202D045F6C450F5E7FDF78DF9B8F89E
:10413000101008F1080569B1DFF8E89199F800203E
:10414000521C89F80020FDF783F90026FDF780F85E
:10415000834610E0FDF77CF946F2AB10208000208A
:1041600053E628685A4681684046FEF712FD761CE1
:10417000B6B2574502D128890028F2D1FDF764F97B
:1041800099F80020521E89F80020FDF761F93804E3
:1041900001D4FEF738FA00202080304635E62DE9BC
:1041A000F84F04465D4815468A46007810B146F23D
:1041B0000E2011E03CB1080008D0B1F5004F05D049
:1041C00045F6256008E045F6C35005E054492068EF
:1041D000884204D045F6C4501080BDE8F88FFDF742
:1041E00033F9DFF84491226AD9F800108A4204D0EA
:1041F000FDF72EF945F281706CE0DFF8288198F820
:104200000020521C88F80020FDF722F9FDF720F865
:104210000646A06294F82500DFF8FCB0401E10F0BE
:10422000FF0084F8250016D0FDF70EF998F800106D
:10423000491E11F0FF0188F8001007D1BBF80010EB
:1042400021B1FDF705F9FEF7EBFD01E0FDF700F9FF
:1042500045F283703EE0208A04F10807E0B3D9F804
:10426000000094F8243090F837209A4213D0FEF7DB
:10427000A0FBD9F8001094F8240081F8370000F072
:1042800074F8D9F80000FEF74CFCD9F80000274973
:1042900090F837000870386800231A468168216258
:1042A00091F8370084F82400012084F82500204686
:1042B0000096FEF769FDFDF7C7F898F80020521E3A
:1042C00088F80020FDF7C4F85FEA0A4001D4FEF741
:1042D0009AF90020288080E7FFE700262662FDF794
:1042E000B3F898F80010491E11F0FF0188F800108B
:1042F00007D1BBF8001021B1FDF7AAF8FEF790FD39
:1043000001E0FDF7A5F82E8067E7094A002111605A
:10431000084A1180018070476C0000206000002076
:104320004D555458A8000020E80000208E000020C1
:10433000880000208C00002000201A4A014642F824
:104340002010401C0228FAD3704710B500241548ED
:1043500002E02034E4B2001D01680029F9D00846CB
:10436000FDF77DF82044C0B210BD00F01F024109E6
:104370000120C2F11F0290400A4A52F82130034343
:1043800042F82130704700F01F0241090120C2F1BC
:104390001F029040034A52F82130834342F82130F3
:1043A00070470000380000200023F84AF6A143615E
:1043B000C161116819B18161486110607047836102
:1043C000FBE72DE9F0410446F1481746884600789E
:1043D0001D4610B142F6E1602CE034B347B3FDF75F
:1043E00033F8EC4E3178491C3170FDF731F8EA486A
:1043F000C4E90008394604F12000FFF7B4FB04F1DA
:104400000800FEF72DFC2046FFF7CEFFE3490888A1
:10441000401C0880FDF718F83178491E3170FDF70F
:1044200017F800202880BDE8F08145F6C35001E070
:1044300046F294501880F6E770B5044620300546E1
:10444000FFF779FBD6482060D6A06060002128469F
:10445000FFF789FB04F10800BDE87040FEF700BCDF
:10446000D0E9052100232AB151B191614A618361EC
:1044700043617047C54A116001B14B618361704768
:104480009361F5E72DE9F05F0746C1481446894678
:10449000007810B143F2C9200BE047B1080045F69F
:1044A000256B0AD0012908D0A2F800B002E045F639
:1044B000C35010800020BDE8F09FB749386888429B
:1044C00002D045F6C450F4E7FCF7BEFF82463D8AB1
:1044D0005FEA0900DFF8C49207F10806A84608D091
:1044E00001281FD05046FCF7B3FFA4F800B04046A7
:1044F000E1E75FEA080006D05046FCF7A9FF47F263
:104500005F102080F3E73846FFF7AAFFB9F80010E4
:104510003846491EA9F80010FFF78EFF5046FCF7F9
:1045200097FF2DE0DFF86CB250469BF80010491C55
:104530008BF80010FCF78CFFFCF78AFE824607E040
:104540003068524681683846FEF7CCFB6D1EADB22E
:10455000002DF5D13846FFF783FFB9F80010384633
:10456000491EA9F80010FFF767FFFCF76DFF9BF8E5
:104570000020521E8BF80020FCF76AFFFEF743F87C
:104580000020BEE770B5054681480C46007810B1A2
:104590004FF46C500BE045B17F492868884208D041
:1045A00045F6C4502080002070BD45F6C3500880F9
:1045B000F9E7FCF749FF774E3178491C3170FCF779
:1045C00047FF05F12000FFF7B6FA0546FCF73CFF70
:1045D0003178491E11F0FF01317007D17249098805
:1045E00021B1FCF735FFFEF71BFC01E0FCF730FFC3
:1045F00000202080284670BD2DE9F04F074689B085
:104600006348DDE9125400781E4691468B4610B18E
:1046100046F2AE1040E047B156B110000BD0B2F5F3
:10462000004F08D045F6256036E045F6C35033E02C
:1046300046F2D52030E058493868884202D045F625
:10464000C45029E04FF000080DB1C5F80080FCF718
:10465000FBFE009023462A46314607F12000FFF773
:1046600089FA8246208840B15FEA09400CD500985B
:10467000FCF7EEFE46F2B0100EE00098FCF7E8FE04
:10468000504609B0BDE8F08F4248017839B1009832
:10469000FCF7DEFE46F6635020800020F1E78146FD
:1046A000012089F800000098FCF7D2FE5B46052245
:1046B000394601A8FEF7B9F9FCF7C6FE99F80010D3
:1046C000491E89F80010FCF7C3FEFDF79CFFFCF7BC
:1046D000BBFE364A0346116891F8350060B10128E7
:1046E00015D002282AD003284FF0000719D0A6F8C9
:1046F000008046F62E601BE0B1F86000CF6D308080
:1047000015B11068006C2860A4F8008011E0002743
:10471000A6F8008015B11068006C286046F2A91058
:1047200006E04046A6F8008005B1286047F2D9208F
:1047300020801846FCF78CFE3846A2E70027A6F832
:10474000008015B11068006C286045F6C250EFE794
:104750002DE9F05F80460E480F461446007810B1F0
:1047600046F2AA1026E0B8F1000F21D04FF4807A6B
:1047700017B3574520D0B7F5004F1DD0B7F5014FFF
:104780001AD045F6256015E02000000094000020B6
:1047900060000020A80000205155455598000020D9
:1047A0004E4F4E453F5100006C000020E8000020B5
:1047B00045F6C350108021E07949D8F800008842BE
:1047C00002D045F6C450F5E7FCF73EFEB8F81010ED
:1047D00008F1080569B1DFF8CC9199F80020521C66
:1047E00089F80020FCF734FE0026FCF731FD8346F3
:1047F00010E0FCF72DFE46F2AB10208000205AE6B8
:1048000028685A4681684046FEF7C3F9761CB6B25E
:10481000574502D128890028F2D1FCF715FE99F8F6
:104820000020521E89F80020FCF712FE380401D443
:10483000FDF7E9FE0020208030463CE62DE9FF4FE1
:1048400083B01E46DDE9107A93468146FCF7FCFDF5
:10485000DFF8508198F80020521C88F80020FCF7FF
:10486000F7FDB9F8104009F1080024B1B10500D4F2
:10487000012405682FE0F00601D4002300E0102396
:10488000CDE9007A5A4609F120000499FFF79BF917
:10489000FCF7DAFD98F80010491E11F0FF0188F8C6
:1048A000001009D14049098831B1FCF7D1FD07B0AA
:1048B000BDE8F04FFEF7B4BA07B0BDE8F04FFCF723
:1048C000C7BDA9686D685B4600974846049AFEF725
:1048D0005BFA641EA4B2002CF3D1FCF7B5FD98F886
:1048E0000020521E88F80020FCF7B2FD300401D4ED
:1048F000FDF789FE0021AAF8001007B0C2E62DE9F5
:10490000FF471E460C9C9046894605000ED04FF48A
:104910000070B3F5004F18D00BDCB3B1102B14D0DE
:10492000834212D0B6F5047F0CD10EE045F6C35099
:1049300011E0A6F50043103B07D0B3F5F87F04D093
:10494000834202D045F6256005E0154F2868B8423D
:1049500004D045F6C4502080BDE8FF87FCF778FC02
:104960001249097859B10021CDE90016CDE90204B8
:1049700043464A4629463846FEF75AFEECE7CDE95B
:1049800000043346424649462846FFF757FFE3E70F
:10499000074A00211160074A11800180704700001A
:1049A00051554555A80000206C00002060000020F3
:1049B00094000020980000200023F94AF7A14361E9
:1049C000C161116819B181614861106070478361EC
:1049D000FBE72DE9F0410446F24817468846007887
:1049E0001D4610B142F6E16025E014B3FCF72CFD42
:1049F000ED4E3178491C3170FCF72AFD2762002703
:104A0000EA486762C4E9000804F10800FEF728F9E3
:104A10002046FFF7D1FFE6490888401C0880FCF7D4
:104A200013FD3178491E3170FCF712FD2F80BDE86F
:104A3000F08145F6C3501880F9E7DE4940F8201BA5
:104A4000002102C040F82019DBA102C0FEF708B91E
:104A5000D0E9052100232AB151B191614A618361F6
:104A600043617047CE4A116001B14B618361704769
:104A70009361F5E72DE9F05F0746CA481446894679
:104A8000007810B143F2C9200BE047B1080045F6A9
:104A9000256B0AD0012908D0A2F800B002E045F643
:104AA000C35010800020BDE8F09FC049386888429C
:104AB00002D045F6C450F4E7FCF7C6FC82463D8AB6
:104AC0005FEA0900DFF8E89207F10806A84608D077
:104AD00001281FD05046FCF7BBFCA4F800B04046AC
:104AE000E1E75FEA080006D05046FCF7B1FC47F268
:104AF0005F102080F3E73846FFF7AAFFB9F80010EF
:104B00003846491EA9F80010FFF797FF5046FCF7FA
:104B10009FFC2DE0DFF890B250469BF80010491C36
:104B20008BF80010FCF794FCFCF792FB824607E040
:104B30003068524681683846FEF7D4F86D1EADB233
:104B4000002DF5D13846FFF783FFB9F8001038463D
:104B5000491EA9F80010FFF770FFFCF775FC9BF8E1
:104B60000020521E8BF80020FCF772FCFDF74BFD75
:104B70000020BEE72DE9F04706468A4888B01C466B
:104B80000078109D91468A4610B146F2AE100AE0B8
:104B90003EB1100009D0B2F5004F06D045F62560B1
:104BA00001E045F6C35028805BE0804831688142CF
:104BB00002D045F6C450F6E7002704B12760FCF7A1
:104BC00043FCD6F82080B8F1000F0BD0A8F1010803
:104BD000C6F820800CB1716A2160346AFCF738FC99
:104BE0002F8054E05FEA094108D5FCF731FC46F21A
:104BF000B0102880404608B0BDE8F0876A490A78BE
:104C000022B1FCF725FC46F66350CCE7884601212B
:104C100088F80010FCF71CFC534606223146684613
:104C2000FDF703FFFCF710FC98F80010491E88F808
:104C30000010FCF70DFCFDF7E6FCFCF705FC024656
:104C40005F48016891F8350068B1012810D002284A
:104C50001FD0032812D046F62E6028801046FCF79D
:104C6000F7FB0020C7E70CB1086C20602F800AE03A
:104C70000CB1086C206046F2A91003E004B1276073
:104C800047F2D92028801046346AFCF7E1FB204621
:104C9000B1E70CB1086C206045F6C250F2E72DE98F
:104CA000F05F80463F480F461446007810B146F248
:104CB000AA1012E0B8F1000F0DD04FF4807A77B14E
:104CC00057450CD0B7F5004F09D0B7F5014F06D0C6
:104CD00045F6256001E045F6C350108021E03349D8
:104CE000D8F80000884202D045F6C450F5E7FCF73A
:104CF000ABFBB8F8101008F1080569B1DFF8A8900F
:104D000099F80020521C89F80020FCF7A1FB00262E
:104D1000FCF79EFA834610E0FCF79AFB46F2AB10D4
:104D200020800020BFE628685A4681684046FDF78B
:104D300030FF761CB6B2574502D128890028F2D13F
:104D4000FCF782FB99F80020521E89F80020FCF73E
:104D50007FFB380401D4FDF756FC0020208030464C
:104D6000A1E62DE9F84F1F46904689460646FCF716
:104D70006BFB318A06F108054FF0000B69B1DFF8D3
:104D800028A09AF80020521C8AF80020FCF760FB4B
:104D90005FEA895027D52C8926E013E02000000027
:104DA000B400002060000020A800002053454D41C1
:104DB000B80000204E4F4E453F53454D00000000C7
:104DC000E8000020346A611C05D0641CC6E908486C
:104DD000FCF73EFB26E0FCF73BFB46F6C55038806F
:104DE0000020BDE8F88F01242D680AE0A9686D68ED
:104DF00000231A463046CDF80080FDF7C5FF641E3B
:104E0000A4B2002CF2D1346AFCF71EFB9AF8002001
:104E1000521E8AF80020FCF71BFB5FEA094001D410
:104E2000FDF7F1FBA7F800B02046DAE72DE9FF41D6
:104E30000C46060015460DD07CB1B4F5007F0CD0B1
:104E4000B4F5004F09D0B4F5024F06D045F6256001
:104E500010801AE045F6C350FAE7284F3068B84290
:104E600002D045F6C450F3E7FCF7F2F902462448B5
:104E7000007868B1002003950090CDE90142034617
:104E8000024631463846FEF7D3FB002004B0CEE59B
:104E900004B02B4621463046BDE8F04161E770B5CD
:104EA000044617480E461546007810B146F6C6501F
:104EB00006E03CB111492068884206D045F6C4504E
:104EC000108070BD45F6C350FAE700202880FCF73B
:104ED000BBFA216A41B9218A31B147F25F112980B9
:104EE000BDE87040FCF7B4BA2662F9E7054A002134
:104EF0001160054A118001807047000053454D4103
:104F000060000020B4000020B80000202DE9F0412E
:104F10000446F9480D461646007810B147F249108C
:104F200004E046F273200DB13F2D02D31080BDE89E
:104F3000F081ACB10027FCF787FADFF8C08398F85E
:104F40000020521C88F80020FCF782FA94F8360002
:104F500008283CD2DFE800F00C261C1C26261C1C6E
:104F6000FCF772FAE6490C68FCF772FA0127E2E7EF
:104F70002046FDF71EFD84F837502846FFF7F5F967
:104F8000204617B1FDF7B3FD13E0FDF7CAFD10E0B1
:104F900094F8340008280CD2DFE800F00B04040772
:104FA0000707070484F8375003E029462046FDF739
:104FB0003EFEFCF749FA98F80020521E88F80020BF
:104FC000FCF746FAFDF71FFB00203080AFE7FCF747
:104FD0003BFA98F80010491E11F0FF0188F8001004
:104FE00007D1C849098821B1FCF732FAFDF718FF4B
:104FF00001E0FCF72DFA46F62D60E6E7C24B0022F1
:10500000C0F8B820196829B1C0F8BC10C1F8B800C0
:1050100018607047C0F8BC20FAE770B5002505603D
:1050200085604560C5600561456104468561B7A03E
:10503000C4E907506562A562E5622564E565A4F8E8
:105040006050294604F16400FEF78DFD6567A56791
:10505000C4F88050A4F888500020C4F8845004EBB1
:105060008001401CCD6710F0FF00F8D06564C4F8E3
:10507000A450C4F8A850A56384F88A50C4F8B0506E
:10508000C4F8AC50A5874FF00040C4E9120525656F
:105090006565A565A4F88C50A4F88E50C4F89050AE
:1050A000C4F894503434FCF7D3F8C4E91905C4F8B3
:1050B000805004F8015B402004F8015B04F8015BB8
:1050C00004F8810B93A020C4C4E9005070BD2DE901
:1050D000FF4F83B004468848DDE91785DDE9109766
:1050E0000078DDF854A0139E10B147F24A102AE070
:1050F0004CB1059850B167B18748006886420BD221
:1051000046F630601FE047F2AD101CE047F24F104A
:1051100019E046F62F6016E01298B04202D346F628
:10512000316010E046F27320B9F1400F0BD25FEA14
:10513000090103D0B9F13F0F02D008E0774900E040
:1051400077498C4203D0288007B0BDE8F08F204615
:10515000FFF763FF4FF0000BA5F800B05FEAC870DF
:105160000AD05FEA887007D5384600215A4601E028
:1051700004C0491CB142FBD31298CDE9006807EB8B
:105180008005DDE905012B463A4601F0DCFC059976
:10519000A1620699E1620499216284F83790C4F80B
:1051A00054A0A56020605FEA0A003AD0A065169876
:1051B0006762A6636060A4F83C800020594604EB57
:1051C0008002401CD16710F0FF00F8D004F16400A9
:1051D0001499FEF7C8FC204601F0A3FCFCF734F953
:1051E000464D2978491C2970FCF732F994F83700AC
:1051F000FFF7BBF82046FDF794FC2046FFF7FEFEC4
:1052000048490888401C08804748007801281AD07F
:10521000FCF71AF92978491E11F0FF01297003D013
:105220000CE042480068C1E73649098831B1FCF713
:105230000FF907B0BDE8F04FFDF7F2BD07B0BDE8CC
:10524000F04FFCF705B9FCF7FFF82978491E2970E3
:10525000FCF7FEF807B0BDE8F04FFDF7D4B9D0E990
:105260002E2100234AB181B1C2F8BC10C1F8B82088
:10527000C0F8BC30C0F8B8307047234A116009B19B
:10528000C1F8B830C0F8BC307047C2F8BC30F1E7A4
:1052900070B5044618480D46007810B147F24E101C
:1052A0000AE01F48844202D147F24C1004E01B4838
:1052B000844203D147F24D10088070BD2CB9FCF731
:1052C000C3F80F490C68FCF7C3F8FCF7BDF80B4EA8
:1052D0003178491C3170FCF7BBF894F83600082887
:1052E0005BD2DFE800F00425292939252929204649
:1052F000FDF75FFB30E0000060000020A800002008
:10530000E80000206C000020C00000203F546173C2
:105310006B000000200000005C7400082C1C0020C2
:10532000681B0020C400002061000020AC000020A9
:10533000204600F081FD0FE0204600F07DFD94F84E
:105340003400072808D2DFE800F00704070404044B
:1053500004002046FDF7A8FB04F16400FEF7EBFB18
:10536000204601F0E4FB2046FFF779FFF949088861
:10537000401E08802046FFF750FEFF2084F83600CC
:10538000FCF762F83178491E3170FCF761F80020B3
:105390002880BDE87040FDF736B9FCF755F8317844
:1053A000491E11F0FF01317007D1EB49098821B185
:1053B000FCF74EF8FDF734FD01E0FCF749F846F63E
:1053C0002D60288070BD70B50446E4480E46007814
:1053D00020B14FF46C500880002070BD2CB9FCF750
:1053E00033F8DF490C68FCF733F8FCF72DF8DD4D96
:1053F0002978491C2970FCF72BF804F16400FEF7AA
:105400009AFB0446FCF720F82978491E11F0FF01A9
:10541000297007D1D049098821B1FCF719F8FDF7A7
:10542000FFFC01E0FCF714F800203080204670BD3E
:105430002DE9F84F8346C9480A9D1C460078164658
:105440000F4610B146F2AE100AE03EB1080009D096
:10545000B1F5004F06D045F6256001E046F2D520B3
:1054600028801CE04FF000090CB1C4F80090FBF755
:10547000EBFFDFF8EC8200902B46D8F800002246C4
:1054800031466430FEF776FB8246288850B13804F6
:1054900019D546F2B01028800098FBF7D9FF0020FC
:1054A000BDE8F88F54B1FBF7D3FE2168401AD8F855
:1054B000001048678A6F824200D288670098FBF725
:1054C000C7FF5046ECE7A748017829B10098FBF7E1
:1054D000BFFF46F66350C3E70746012038700098C7
:1054E000FBF7B6FF00215B4602220846FDF79DFA56
:1054F000FBF7AAFF3978491E3970FBF7A9FFFDF7C2
:1055000082F8FBF7A1FF8246D8F8000090F835102A
:1055100091B101294FF0000726D0A6F800901CB1E8
:10552000D8F80000006C206047F2D920288050464F
:10553000FBF78EFF3846B3E7C76DB0F860003080E8
:105540007CB1D8F80000006C2060FBF781FE0146BA
:10555000D8F80000026C891A4167826F8A4200D233
:105560008167A5F80090E2E74846A6F8009004B1EC
:10557000206046F2A910D9E72DE9F04105467748A9
:105580000F461446007810B146F2AA1005E037B174
:10559000B7F5004F03D045F62560108014E0FBF707
:1055A00053FF1DB16E4909688D4204D1FBF750FFCE
:1055B00046F2AC1007E095F83410022906D0FBF74C
:1055C00047FF46F2AB1020800020B0E4654E3178F2
:1055D000491C3170FBF73CFFFBF73AFE02462946B7
:1055E0000020FDF7D6FAFBF72FFF3178491E317006
:1055F000FBF72EFF380401D4FDF705F800202080CA
:10560000012094E42DE9FC5F9946DDE90C75924692
:105610008B460446FBF718FF524E3178491C317017
:10562000FBF716FF0CB94E4804680020288094F858
:105630003600DFF8248108283CD2DFE800F00404BB
:105640001E1E04041E1ECDE900754B4652465946E7
:1056500004F16400FEF7B7FAFBF7F6FE3178491E55
:1056600011F0FF01317021D1B8F80010F1B1FBF752
:10567000EFFEBDE8FC5FFDF7D3BB94F834000228D1
:10568000E1D153465A46214600200097FDF77CFBA6
:10569000FBF7DAFE3178491E3170FBF7D9FE5FEA7D
:1056A00009401CD4BDE8FC5FFCF7ADBFBDE8FC5F62
:1056B000FBF7CEBEFBF7C8FE3178491E11F0FF01A3
:1056C000317007D1B8F8001021B1FBF7C1FEFDF72A
:1056D000A7FB01E0FBF7BCFE46F62D602880BDE885
:1056E000FC9F2DE9FF411C000A9D16460F4680468F
:1056F0000DD0102C0BD0B4F5004F08D0A4F500400D
:10570000103804D045F625602880BDE8FF81FBF7FE
:105710009FFD1249097859B10021CDE90014CDE966
:10572000020533463A4641460F48FDF781FFECE754
:10573000CDE900052346324639464046FFF762FF71
:10574000E3E770B51546044681B146F6791010803E
:10575000002070BDC40000206C000020600000200C
:10576000E8000020A8000020544D5347FBF76CFED2
:105770000CB9FD490C68E46FFBF76AFE0020288035
:105780002046E6E710B50446FBF75EFEF7490A78C7
:1057900032B145F6DA112180FBF75AFE012010BD27
:1057A00001220A70FBF754FE0020208010BD70B566
:1057B0001D461646044619B146F679101880C8E70A
:1057C000FBF742FE0CB9E8490C68E667FBF740FEC0
:1057D00000202880BDE770B50D460446FBF734FE77
:1057E00000262E8094F8361008294AD2DFE801F00E
:1057F000040404040A23333DFBF72AFE47F2531046
:10580000288024E0DA4D2978491C2970FBF720FE16
:1058100094F88A00401E10F0FF0084F88A0004D13A
:1058200084F836602046FDF7A7F9FBF70DFE2978CE
:10583000491E297009E094F88A10491E11F0FF01F1
:1058400084F88A1001D1012118E0FBF701FEBDE8C0
:105850007040FCF7D8BE94F88A10491E11F0FF0181
:1058600084F88A10F1D1022108E094F88A10491EC8
:1058700011F0FF0184F88A10E7D1032184F8361073
:10588000E3E7FBF7E5FD46F62D60288061E77FB58D
:105890000D460446FBF7D8FD1CB1B34909688C429C
:1058A00005D1FBF7D5FD47F2571028807FBDFBF7E8
:1058B000CFFDB048007858B10020CDE90205009036
:1058C0000346024601902146AB48FDF7B1FE7FBD7D
:1058D00004B029462046BDE870407CE72DE9F0473A
:1058E0008246A44814460F4600781D4610B146F281
:1058F000AE1005E037B1B7F5004F03D045F625608F
:10590000188037E0002604B12660FBF79DFDDFF824
:1059100058828146D8F80000416CD1B1491E4746F3
:10592000884641640CB1006C2060FBF791FC39683B
:105930000A6C801AC1F8A400D1F8A820824201D2D2
:10594000C1F8A8004846FBF783FD2E804046BDE81D
:10595000F087380405D54846FBF77AFD46F2B010CB
:1059600007E0834F387838B14846FBF771FD46F6BB
:10597000635028800020EAE7012038704846FBF792
:1059800067FD0021534607220846FDF74EF8FBF756
:105990005BFD3978491E3970FBF75AFDFCF733FE81
:1059A000FBF752FDD8F800108146474691F83500C4
:1059B00030B1012816D003281AD046F62E601BE01D
:1059C00074B1086C2060FBF743FC39680A6C801ADC
:1059D000C1F8A400D1F8A820824201D2C1F8A800E1
:1059E0002E800AE00CB1086C206046F2A91003E09A
:1059F00004B1266047F2D92028803868446C4846B4
:105A0000FBF726FD2046A2E72DE9F041054659485F
:105A10000E461446007810B146F2AA1005E036B1E1
:105A2000B6F5004F03D045F62560108014E0FBF773
:105A30000BFD1DB14C4909688D4204D1FBF708FDEF
:105A400046F2AC1007E095F83410072906D0FBF7B2
:105A5000FFFC46F2AB1020800020B6E5FBF7F8FC17
:105A6000FBF7F2FC424F3978491C3970FBF7F0FC28
:105A7000FBF7EEFB024629460020FDF78AF8FBF70C
:105A8000E3FC3978491E3970FBF7E2FC300401D49D
:105A9000FCF7B9FD00202080012096E52DE9F84FA4
:105AA000984616468A460446FBF7CEFC304D2978C8
:105AB000491C2970FBF7CCFC0CB92B48046800206A
:105AC0002E4F2664A8F8000094F8360046F6C55913
:105AD000082859D2DFE800F02424202024242020A4
