:020000040800F2
:10000000787D002029020008530500084B050008F0
:100010004F050008550400082743000800000000B1
:10002000000000000000000000000000553F000834
:100030006504000800000000DF0300086D400008B0
:100040004D43000843020008430200082D3F00080A
:10005000430200084302000843020008430200086C
:10006000430200084302000843020008430200085C
:10007000430200084302000843020008430200084C
:10008000430200084302000843020008430200083C
:10009000430200084302000843020008430200082C
:1000A000430200084302000843020008430200081C
:1000B000430200084302000843020008430200080C
:1000C00043020008430200084302000843020008FC
:1000D00043020008F1400008430200084302000800
:1000E00043020008430200084302000843020008DC
:1000F00043020008430200084302000843020008CC
:1001000043020008430200084302000843020008BB
:1001100043020008430200084302000843020008AB
:10012000430200084302000843020008430200089B
:10013000430200084302000843020008430200088B
:10014000430200084302000843020008430200087B
:10015000430200084302000843020008430200086B
:10016000430200084302000843020008430200085B
:10017000430200084302000843020008430200084B
:10018000430200084302000800F002F800F03CF8C7
:100190000AA090E8000C82448344AAF10107DA45E2
:1001A00001D100F031F8AFF2090EBAE80F0013F0F8
:1001B000010F18BFFB1A43F001031847D445000094
:1001C000F4450000103A24BF78C878C1FAD8520725
:1001D00024BF30C830C144BF04680C6070470000C1
:1001E0000023002400250026103A28BF78C1FBD840
:1001F000520728BF30C148BF0B6070471FB504F0DD
:10020000B9F91FBD10B510BD00F088F81146FFF711
:10021000F5FF04F0F5F800F0BAF803B4FFF7F2FFC9
:1002200003BC04F0A5F800000948804709480047CE
:10023000FEE7FEE7FEE7FEE7FEE7FEE7FEE7FEE796
:10024000FEE7FEE704480549054A064B70470000F3
:100250008940000889010008781D0020787D002071
:10026000783D0020783D002072B6704762B6704736
:10027000EFF3108072B6704780F31088704730BF7C
:10028000704720BF7047B0FA80F0704790FAA0F036
:10029000B0FA80F0704790FAA0F070477047000005
:1002A0000FB4044910B503AA029800F009F810BC75
:1002B0005DF814FB200000207047704770477047BE
:1002C000074B70B50D467B4400F011F804462846F4
:1002D00000F020F810B14FF0FF3070BD204670BD27
:1002E0001B41000001694A1C02610878704700B593
:1002F0008FB0CDE901310021059105497944CDE95F
:1003000003101146684600F02EF80FB000BD000043
:10031000E5FFFFFF007B00F080007047754600F0AE
:100320003FF8AE4605006946534620F00700854673
:1003300018B020B5FFF786FFBDE820404FF000065B
:100340004FF000074FF000084FF0000B21F00701BD
:10035000AC46ACE8C009ACE8C009ACE8C009ACE800
:10036000C0098D4670472DE9F04106460024D6E9C4
:100370000170F5688046304603E04146B847641C8A
:100380003046A8470028F8D12046BDE8F08110B5D6
:100390000446AFF300802046BDE81040FFF73DBFA4
:1003A00000487047141D002022484FF6FF7101706D
:1003B000002080F309882048016881F308881F48DD
:1003C0004FF08051016062B6FEE71C484FF080514B
:1003D0000160704719484FF080510160704772B654
:1003E000EFF3098050B11EF0100F08BF20ED108A06
:1003F000203880E8F00F12490968086000B51148FC
:1004000080475DF804EB104810490A7802700C48E8
:100410000F490A680260106890E8F00F20301EF063
:10042000100F08BFB0EC108A80F309884EF0040E5C
:1004300062B6704722ED00E0D800002004ED00E035
:10044000D0000020351400087E0000207F0000202E
:10045000D400002000BFFEE7014948687047000053
:10046000001000E07047000001490860704700007C
:10047000143C0140F0B50A4600210023002400BFCF
:100480003DE0012505FA01F3156805EA03049C42E5
:1004900034D105684F000326BE40B5430560157989
:1004A0004E00B5400668354305601579012D02D030
:1004B0001579022D16D185684F000326BE40B5433D
:1004C000856055794E00B54086683543856045683E
:1004D00001268E40B5434560456896798E40B6B298
:1004E00035434560C5684F000326BE40B543C5602F
:1004F000D5794E00B540C6683543C560491C102902
:10050000BFD3F0BDF0B5002300244D07ED0E02FA75
:1005100005F3CE1000F1200555F826504E07F70ED2
:100520000F26BE40B543CF1000F1200646F82750F5
:10053000CE1000F1200555F8265045EA0304CE10F0
:1005400000F1200545F82640F0BD00BFFEE700BFE2
:10055000FEE7704770B5002100230F22C4781CB35A
:10056000174C246804F4E064C4F5E064C4F3072184
:10057000C1F10404E3B20A4144789C40E1B28478BA
:10058000144021430C07210E0E4C05786155047868
:1005900004F01F050124AC4005786D11AD0005F194
:1005A000E025C5F8004109E0047804F01F050124A6
:1005B000AC40054D0678761145F8264070BD000028
:1005C0000CED00E000E400E080E100E002490143BE
:1005D000024A1160704700000000FA050CED00E0CF
:1005E000124813481348144814481548154816482B
:1005F00016481748174818481848194819481A48FB
:100600001A481B481B481C481C481D481D481E48CA
:100610001E481F481F48204820482148214822489A
:1006200022482348234800BF7047000020460008A6
:100630008045000884450008884500088C4500086E
:100640009045000894450008984500089C4500081E
:10065000A0450008A4450008A8450008AC450008CE
:10066000B0450008B4450008B8450008BC4500087E
:10067000C0450008DC450008E0450008E4450008E6
:10068000E8450008EC450008F0450008F44500087E
:10069000F8450008FC45000800460008044600082C
:1006A000084600080C4600081046000814460008DA
:1006B000184600081C46000810B50348006810B131
:1006C00001480068804710BD3C00002070B504461A
:1006D00000F0AEF8002041490870414908704149D6
:1006E0000870414908604149086041490870414922
:1006F0000870414908704149086041490860414912
:1007000008604148006858B14048056845B13E4816
:10071000066803E0761E002028602D1D002EF9D10A
:1007200000203B4908603B4908603B4908603B4961
:1007300008603B4908603B4908603B4908603B4909
:10074000087001F011FF01F0F1FF204601F0B2F84E
:10075000208800B170BD204601F082FC208800B1E5
:10076000F8E7204601F0A4FC208800B1F2E720461B
:1007700001F070FD208800B1ECE7204601F024FF75
:10078000208800B1E6E7204602F0BAF8208800B1E0
:10079000E0E7204602F0C8F9208800B1DAE72046F9
:1007A00001F0CAFB208800B1D4E7204601F0EEF941
:1007B000208800B1CEE7204603F014F9208800B16C
:1007C000C8E7204603F06AF9208800B1C2E700F0CC
:1007D00099FFFFF705FF00BFBCE7000050000020B5
:1007E0005100002098000020D0000020D4000020FC
:1007F0007E0000207F000020800000208C00002070
:100800009000002094000020B0450008AC4500088E
:100810003000002034000020380000203C00002080
:10082000400000204400002048000020AE000020CE
:10083000064800680649096800EB81000549086020
:100840000846006820F0070008607047AC450008C3
:10085000B0450008D800002008480078012800D0E2
:10086000704707480078FA2800DBF9E70448007869
:10087000401C0349087000BFF2E70000510000204F
:100880005000002010B500242D480078012800D029
:1008900010BD00BFFFF7ECFC044600BF29480078FC
:1008A00028B900BF2046FFF7E7FC00BFF0E7254866
:1008B0000078401E2349087008460078002805DDAE
:1008C00000BF2046FFF7D8FC00BFE1E71E480078D4
:1008D000002805DD00BF2046FFF7CEFC00BFD7E7AC
:1008E00001F02EFE194908700846007800EB400020
:1008F000174951F820001749086008460068164952
:100900000968884205D100BF2046FFF7B5FC00BF4B
:10091000BEE710480068D0F89000401C0D490968F7
:10092000C1F890000D480068401C0C490860FFF7B2
:1009300051FD00BF2046FFF79FFC00BF00BFA7E7A7
:100940005100002050000020980000207F0000206F
:100950008C180020D4000020D0000020A40000202B
:1009600010B500241F480078002800DD10BD1E4887
:100970000078002800DDF9E700BFFFF779FC0446A6
:1009800000BF01F0DDFD194908700846007800EB52
:100990004000174951F820001649086008460068D1
:1009A00015490968884205D100BF2046FFF764FC5D
:1009B00000BFDBE70F480068D0F89000401C0D49ED
:1009C0000968C1F890000D480068401C0B49086098
:1009D000FFF7FBFC00BF2046FFF74EFC00BF00BF47
:1009E000C4E7000050000020980000207F00002095
:1009F0008C180020D4000020D0000020A40000208B
:100A000070B50446002518480078002803DD46F636
:100A10006250208070BD15480078012803D045F64B
:100A200089602080F6E712480078FA2803DB45F257
:100A300009202080EEE700BF00BFFFF719FC054644
:100A400000BF00BF0A480078401C0949087001F047
:100A50002BFF00BF00BF2846FFF70EFC00BF00BF02
:100A60000020208000BFD5E750000020510000206A
:100A70009800002070B50446002520480078002822
:100A800003DD46F66550208070BD1D4800780128C2
:100A900003D045F689602080F6E71A48007818B937
:100AA00046F664502080EFE700BF00BFFFF7E0FB91
:100AB000054600BF00BF13480078401E114908706A
:100AC0000846007800280ADD00BF00BF2846FFF76F
:100AD000D3FB00BF00BF46F663502080D4E701F08F
:100AE000F1FE00BF00BF2846FFF7C6FB00BF00BFF6
:100AF000FFF736FF0020208000BFC5E75000002030
:100B0000510000209800002010B5044612480078DB
:100B1000E8B901F015FD1149087008460078104940
:100B200008700E48007800EB40000E4951F8200094
:100B30000D490860084600680C4908600120064914
:100B40000870FFF731FC43F69920208002E045F65B
:100B50008A60208010BD0000510000207F0000202E
:100B60007E0000208C180020D4000020D00000203F
:100B70002DE9FF4F87B004469046DDE91BA5DDE96E
:100B80001496179F0020039083480078002805DD05
:100B900047F24A1028800BB0BDE8F08F1CB947F22D
:100BA000AD102880F7E7B8F1000F03D147F24F10DE
:100BB0002880F0E71EB946F62F602880EBE77748DB
:100BC0000068874203D246F630602880E3E7169833
:100BD000B84203D346F631602880DCE7B9F1400F14
:100BE00003D346F273202880D5E7B9F1000F06D170
:100BF0006B48844203D046F273202880CBE7B9F1DA
:100C00003F0F06D16748844203D046F27320288004
:100C1000C1E7204601F098FF002028800AF001007B
:100C200090B10AF0020078B105960020069008E025
:100C30000021059801600598001D05900698401C4C
:100C400006900698B842F3D3169806EB80000490FD
:100C5000CDE9007A32464046049B0A9900F0BCFA7E
:100C60000590C4F828800A98E0620898206284F809
:100C70003790059820600498A060199860651A98CC
:100C800060606662A763A4F83CA04FF0000B08E028
:100C9000002104F17C0040F82B100BF1010000F062
:100CA000FF0BBBF1000FF3D004F16400189901F0C1
:100CB0004BFA204600F080F800BF00BF00BFFFF7EE
:100CC000D7FA039000BF00BF37480078401C364970
:100CD000087000BF00BF0398FFF7CEFA00BF00BF47
:100CE00000BF94F8370001F04BFC204601F066FD90
:100CF000204601F0DFFE2D480088401C2B4908806B
:100D00002B48007801282DD000BF00BF00BFFFF79F
:100D1000AFFA039000BF00BF23480078401E22496D
:100D2000087008460078A0B922480088002809DD2C
:100D300000BF00BF0398FFF79FFA00BF00BF01F09C
:100D400089FD0DE000BF00BF0398FFF795FA00BFD3
:100D500006E000BF00BF0398FFF78EFA00BF00BF98
:100D600000BF18E700BF00BF00BFFFF781FA039084
:100D700000BF00BF0C480078401E0B49087000BF40
:100D800000BF0398FFF778FA00BF00BF00BFFFF76E
:100D9000E7FD00BFFFE6000050000020DC45000832
:100DA000BC170020F816002098000020AC0000209E
:100DB000510000205C00002010B504460348006884
:100DC00018B1204601490968884710BD300000204D
:100DD00070B504460D46002667480078002803DDFC
:100DE00047F24E10288070BD6448844203D147F218
:100DF0004C102880F7E76248844203D147F24D1037
:100E00002880F0E77CB900BF00BFFFF731FA064643
:100E100000BF00BF5B48046800BF00BF3046FFF75B
:100E20002BFA00BF00BF00BF00BF00BFFFF720FAD2
:100E3000064600BF00BF54480078401C5249087065
:100E400000BF00BF3046FFF717FA00BF00BF00BF6A
:100E500094F8360008282DD2DFE800F004090E10BF
:100E6000080A0F11204601F0C7FC54E053E000BF10
:100E7000204602F089FC4EE000BF00BF00BF2046C4
:100E800002F082FC94F83400082810D2DFE800F069
:100E900004070508090A0B0600BF00BF08E000BFF1
:100EA00000BF00BF00BF204601F09BFA00E000BF7A
:100EB00000BF30E000BF00BF00BFFFF7D9F9064612
:100EC00000BF00BF30480078401E2F490870084618
:100ED0000078A0B92D480088002809DD00BF00BFB8
:100EE0003046FFF7C9F900BF00BF01F0B3FC0DE0C9
:100EF00000BF00BF3046FFF7BFF900BF06E000BFEC
:100F000000BF3046FFF7B8F900BF00BF00BF46F68C
:100F10002D60288067E700BF04F1640001F0F2F85B
:100F2000204600F037F8204601F0DCFD1848008824
:100F3000401E17490880204601F006FEFF2084F875
:100F4000360000BF00BF00BFFFF792F9064600BFA2
:100F500000BF0D480078401E0B49087000BF00BF5D
:100F60003046FFF789F900BF00BF00BF002028808E
:100F7000FFF7F6FC00BF36E750000020F81600200F
:100F8000BC170020D0000020980000205C0000204A
:100F9000AC00002010B504460348006818B1204694
:100FA00001490968884710BD3400002010B5044687
:100FB0000348006818B1204601490968884710BDF8
:100FC000380000202DE9F04780460E4614461D46A5
:100FD0004FF000097D480078002805DD46F2AE108C
:100FE00028800020BDE8F0871EB1B6F5004F02D181
:100FF00000E000BF04E045F6256028800020F1E70E
:1010000000BF0CB10020206000BF00BFFFF730F927
:10101000814600BF00BF6E480068406CA8B36C48B2
:101020000068406C401E6A49096848646848006866
:10103000476C1CB166480068006C2060FFF70CFA32
:1010400063490968096C401A61490968C1F8A4003C
:101050005F480068D0F8A8005D490968D1F8A4107D
:10106000884207D25A480068D0F8A4005849096855
:10107000C1F8A80000BF00BF4846FFF7FDF800BF59
:1010800000BF002028803846ACE7FFE706F40040A8
:1010900058B100BF00BF4846FFF7EEF800BF00BFE1
:1010A00046F2B010288000209CE74A4800780028CB
:1010B0000BDD00BF00BF4846FFF7DEF800BF00BFF2
:1010C00046F66350288000208CE700BF4148007836
:1010D000401C4049087000BF00BF4846FFF7CCF8ED
:1010E00000BF00BF00BF434607220021084601F0B1
:1010F000BDF800BF00BF00BFFFF7BAF8814600BFD0
:1011000000BF34480078401E3249087000BF00BF5D
:101110004846FFF7B1F800BF00BF00BFFFF720FC53
:1011200000BF00BFFFF7A4F8814600BF00BF2848FA
:10113000006890F8350020B1012826D0032834D16A
:101140002CE0FCB122480068006C2060FFF784F9B5
:101150001F490968096C401A1D490968C1F8A400B3
:101160001B480068D0F8A80019490968D1F8A410F4
:10117000884207D216480068D0F8A40014490968CC
:10118000C1F8A8000020288013E01CB110480068B6
:10119000006C206046F2A91028800AE00CB1002003
:1011A000206047F2D920288003E046F62E60288090
:1011B00000BF00BF06480068476C00BF00BF48463C
:1011C000FFF75AF800BF00BF38460BE75000002079
:1011D000D000002098000020F0B50446DDE9055657
:1011E00002EB850020F007004FF0000C071F384687
:1011F000C7F800C04FF4805C071F3846C7F800C02E
:101200004FF0150C071F3846C7F800C04FF0140CFC
:10121000071F3846C7F800C04FF0130C071F3846A9
:10122000C7F800C04FF0120C071F3846C7F800C0BF
:101230004FF0110C071F3846C7F800C04FF0100CD4
:10124000071F3846C7F800C04FF0090C071F384683
:10125000C7F800C04FF0080C071F3846C7F800C099
:101260004FF0070C071F3846C7F800C04FF0060CB8
:10127000071F3846C7F800C04FF0050C071F384657
:10128000C7F800C04FF0040C071F3846C7F800C06D
:101290004FF0030C071F3846C7F800C04FF0020C90
:1012A000071F3846C7F800C04FF0010C071F38462B
:1012B000C7F800C04FF0000C071F3846C7F800C041
:1012C0004FF0807C071F3846C7F800C0071F38461C
:1012D0003C60DFF85CC1071F3846C7F800C04FF01C
:1012E000123C071F3846C7F800C04FF0033C071FE9
:1012F0003846C7F800C04FF0023C071F3846C7F811
:1013000000C0071F38463B60071F384639604FF062
:10131000310C071F3846C7F800C04FF0300C071FCC
:101320003846C7F800C04FF0290C071F3846C7F8E9
:1013300000C04FF0280C071F3846C7F800C04FF018
:10134000270C071F3846C7F800C04FF0260C071FB0
:101350003846C7F800C04FF0250C071F3846C7F8BD
:1013600000C04FF0240C071F3846C7F800C04FF0EC
:10137000230C071F3846C7F800C04FF0220C071F88
:101380003846C7F800C04FF0210C071F3846C7F891
:1013900000C04FF0200C071F3846C7F800C04FF0C0
:1013A000190C071F3846C7F800C04FF0180C071F6C
:1013B0003846C7F800C04FF0170C071F3846C7F86B
:1013C00000C04FF0160C071F3846C7F800C04FF09A
:1013D000113C071F3846C7F800C04FF0103C071FEC
:1013E0003846C7F800C04FF0093C071F3846C7F819
:1013F00000C04FF0083C071F3846C7F800C04FF048
:10140000073C071F3846C7F800C04FF0063C071FCF
:101410003846C7F800C04FF0053C071F3846C7F8EC
:1014200000C04FF0043C071F3846C7F800C0F0BDAD
:10143000792F000810B51D48006810B11B480068DE
:101440008047FFF709F804461948006819490968F8
:10145000884215D016480068D0F89800201A144920
:101460000968C1F8940012480068D0F89C0010493F
:101470000968D1F8941008440D490968C1F89C0026
:101480000C480068C0F8984009480068D0F8B400DB
:1014900009490968884205D2074800680449096873
:1014A000C1F8B40000200449086010BD44000020C9
:1014B000D0000020D4000020940000202DE9FF5F20
:1014C00005460E4617469846DDE90EA4002000901A
:1014D00072480078002804DD47F275202080BDE8BE
:1014E000FF9F6F480078002803DD46F66350208098
:1014F000F5E70AF00E0BBBF1000F09D0BBF1020FAC
:1015000007D0BBF1040F10D0BBF1080F0ED101E0E2
:1015100000BF00BFB8F1000F06D12FB926B91DB921
:1015200047F27E202080DAE704E003E045F62560FC
:101530002080D4E700BF2AF01E0008B1012000E09F
:10154000002003900398012803D145F625602080F0
:10155000C5E7CAF3001002900298C0B9B8F57A7FC7
:1015600003D347F27B202080B9E73B2F03DD47F20E
:101570007A202080B3E73B2E03DD47F279202080DC
:10158000ADE7632D12DD47F278202080A7E742F215
:101590000F70864203DD47F2792020809FE7B5F582
:1015A0007A7F03DB47F27820208098E73D48D0F827
:1015B00000904FF4FA70B0FBF9F0404400FB09F0E2
:1015C0004FF47A71B0FBF1F14FF461606843C6EB00
:1015D000061200EB8200384400FB091001900198CC
:1015E000002856D000BF00BF00BFFEF741FE0090AC
:1015F00000BF00BF2A480078401C2949087000BF7E
:1016000000BF0098FEF738FE00BF00BF00BF0120FA
:101610002549096881F8360023465A46224801992F
:10162000006801F0D3FF2088A8B100BF00BF00BF51
:10163000FEF71EFE009000BF00BF19480078401E54
:101640001749087000BF00BF0098FEF715FE00BFE5
:1016500000BF00BF43E71448006801F0CDF800BFA9
:1016600000BF00BFFEF704FE009000BF00BF0C48A3
:101670000078401E0A49087000BF00BF0098FEF7BE
:10168000FBFD00BF00BF00BFFFF76AF9002020800C
:1016900002E047F27E20208000BF20E750000020BB
:1016A00098000020E0450008D000002010B586B06A
:1016B00000F01EF8FEF7D0FE044605A800210091B8
:1016C000CDE9011403900748007800EB4000064A7A
:1016D00002EB800100231A46044800F08FFA06B09E
:1016E00010BD00007E0000208C1800205449434BA0
:1016F00010B50348006810B101480068804710BD6C
:1017000048000020244825482548264826482748E0
:10171000274828482848294829482A482A482B4841
:101720002B482C482C482D482D482E482E482F4811
:101730002F483048304831483148324832483348E1
:1017400033483448344835483548364836483748B1
:10175000374838483848394839483A483A483B4881
:101760003B483C483C483D483D483E483E483F4851
:101770003F48404840484148414842484248434821
:1017800043484448444845484548464846484748F1
:10179000474800BF70470000244600088C470008F7
:1017A0002646000827460008284600082C46000860
:1017B000304600082D4600085846000859460008E3
:1017C0005A4600085C4600085E460008604600086D
:1017D0006246000864460008844600088646000801
:1017E000884600088A4600088C4600088E46000895
:1017F00090460008BC460008BD460008BE460008EA
:10180000C0460008C2460008C3460008C446000897
:10181000C6460008C8460008CA460008CC4600086C
:10182000CE460008D04600080047000801470008DF
:10183000024700080347000804470008064700085D
:1018400008470008304700083147000832470008C1
:101850003347000834470008364700083847000877
:101860003C4700083D4700083E4700083F47000846
:101870004047000841470008424700084347000826
:101880004447000846470008474700084847000803
:101890004A4700084C4700084D47000850470008D9
:1018A00084470008854700088647000888470008E5
:1018B0008A4700080021034A1160034A1180018011
:1018C00070470000680000206C0000202DE9F04FF8
:1018D00085B00446894692469B46DDF83880002054
:1018E000009000BF00BFFEF7C3FC009000BF00BF28
:1018F000BAF1000F0AD0BAF1010F0DD0BAF5004FBE
:1019000005D06FF40040504460B906E000BF206A83
:1019100040EA0900206214E000BF206A20EA0900C2
:1019200020620EE000BF00BF0098FEF7A5FC00BFDC
:1019300000BF45F62560A8F80000002005B0BDE80E
:10194000F08F00BFC4F824B004F1080001900198A2
:10195000008958B900BF00BF0098FEF78DFC00BF9A
:1019600000BF0020A8F80000206AE7E700BF614838
:101970000078401C5F49087000BF00BF0098FEF768
:101980007BFC00BF00BF00BF01980768BD687FE017
:101990007868029095F8880000F00F000390039893
:1019A000012821D002282ED0042802D0082836D1C0
:1019B0000EE0206AD5F8801000EA0106D5F8800014
:1019C000B04204D15A463146284600F097F859E013
:1019D000206AD5F8801000EA010626B15A46314641
:1019E000284600F08BF84DE0D5F88000216A20EA07
:1019F0000106D5F88000B04204D15A463146284647
:101A000000F07CF83EE0D5F88000216A20EA01066B
:101A100026B15A463146284600F070F832E000BF41
:101A200000BF00BFFEF724FC009000BF00BF31489C
:101A30000078401E2F49087008460078A0B92E484B
:101A40000088002809DD00BF00BF0098FEF714FCE5
:101A500000BF00BF00F0FEFE0DE000BF00BF009819
:101A6000FEF70AFC00BF06E000BF00BF0098FEF7CB
:101A700003FC00BF00BF00BF43F6FF20A8F8000032
:101A800000205BE700BF029F0FB1BD6800E00025AA
:101A9000002D7FF47DAF00BF00BF00BFFEF7E8FB65
:101AA000009000BF00BF13480078401E1149087025
:101AB00000BF00BF0098FEF7DFFB00BF00BF00BF04
:101AC0000AF4004008B9FEF74BFF00BF00BFFEF765
:101AD000CFFB009000BF00BF206A049000BF00BF92
:101AE0000098FEF7C9FB00BF00BF0020A8F8000067
:101AF000049823E7980000205C00002070B504469D
:101B00000E46154634342665002060702070E5606E
:101B1000A078343C082816D2DFE800F00405080954
:101B20000706101100BF00BF00BF0DE000BF204638
:101B300001F074F9002084F8360005E000BF0420AD
:101B400084F8360000E000BF00BF204600F049FCEA
:101B500070BD0000002400BF14E000BF00BFFEF70E
:101B600087FB044600BF00BF07480068401C0649C9
:101B7000086000BF00BF2046FEF77EFB00BF00BF2D
:101B8000FEF79AFDE9E700004C00002010B58AB08E
:101B9000044600200E4908600B2000210591CDE984
:101BA0000704069108460B4909680B4A12680B4B5B
:101BB0001B68CDE90132CDE903103F200023084A1C
:101BC00008A100900C48FEF7D3FF0AB010BD00003A
:101BD0004C00002088450008844500088045000826
:101BE000551B000875432F4F532D4949492049641F
:101BF0006C65205461736B00F81600202DE9F84FD6
:101C000004460D4616461F46DDE90BABDDF828906D
:101C1000DDF834800020009000BF00BFFEF728FBF5
:101C2000009000BF00BF2B4800882B4909888842DC
:101C30003EDA28480088401C26490880274800884A
:101C40000988884203DA2348008824490880244808
:101C50000068046022480068856021480068C6600A
:101C60001F48006807821E480068C0F814901C488E
:101C70000068A0F818A01A480068C0F81CB01848FE
:101C80000068406816490860012016490881164816
:101C900008604860002000F073FC1448007818B118
:101CA00012480078124908700020A8F8000008E0E7
:101CB00010480088401C0F49088044F25360A8F87F
:101CC000000000BF00BF0098FEF7D6FA00BF00BFBB
:101CD000BDE8F88F5C000020944500085E000020FD
:101CE000540000208C180020BC1700207E0000202B
:101CF00080000020600000203EB555480068554A2D
:101D00000168881A914279D00FDC534808440028B2
:101D10003ED052490844A8B151490844002860D037
:101D20005049084400286AD13FE04F490844002840
:101D300050D04E490844002862D04D49084400283C
:101D4000F1D110E002A8424D00902D68EB69404DA2
:101D50002D682A8B3E4D2D6869693D4D2D68A86818
:101D6000FFF7B4FD71E002A939480068C069384D39
:101D7000CDE900012D682B8B354D2D682A8A344D15
:101D80002D68E968324D2D68A86800F029FC5CE0F8
:101D90002F4B1B68DA692E4B1B68198B2C4B1B6869
:101DA000986802AB00F0B8FD4FE002A9284800682F
:101DB000C069274DCDE900012D682B8B244D2D687E
:101DC0002A8A234D2D68E968214D2D68A86800F006
:101DD0001FFF3AE01E490968886802A901F02CF843
:101DE00033E01B4B1B68DA69194B1B68198B184BC6
:101DF0001B68986802AB01F0CBF826E007E023E00F
:101E000013490968886802A901F024FB1DE0104805
:101E1000006802AB0021C269164801F0B9F8164803
:101E20000068401E144908600846006858B9134805
:101E300000680860FEF710FB044602AB2246002152
:101E40000F4801F0A5F800E000BF00BF3EBD000054
:101E5000580000205449434BADBAB2BE0DF90BFAFD
:101E6000F2F8F7FF0006F6FF00F7FDF700FFEFFFBF
:101E700003FE0FFE8C1B0020CC000020C8000020B9
:101E8000501C0020002700BF4CE0002648E000BFA7
:101E900000BFFEF7EDF9074600BF00BF22480088EB
:101EA00088B90020214908810860486000F07AFB69
:101EB00000BF00BF3846FEF7DFF900BF00BFFEF7E6
:101EC0004FFD01262CE000BF00BF3846FEF7D4F9D5
:101ED00000BF00BFFEF7C0FA0546FFF70DFFFEF793
:101EE000BBFA441B12480068A04201D210480460AB
:101EF00000BF00BFFEF7BCF9074600BF00BF0D489A
:101F0000006840680B49086007480088401E064981
:101F1000088000BF00BF3846FEF7AEF900BF00BF23
:101F2000002EB4D0B1E700005C0000208C18002027
:101F30006400002058000020F0B589B0054600205C
:101F4000314908803148006820B944F25260288045
:101F500009B0F0BD2E480088022803DA44F254602C
:101F60002880F5E700202B490860284804682646A9
:101F7000203600270CE0284820600020A060E060A8
:101F8000208260612083666020342036781C87B20E
:101F90001F4800888742EEDB203C1C4806686660CC
:101FA0001E4806601E48066000201E4908801E4923
:101FB00008801E48006818B944F255602880C7E7B9
:101FC0001B4800681B490968884203D244F25660E6
:101FD0002880BDE7032000210591CDE90705069182
:101FE00013480068144A1268104B1B68CDE90301BE
:101FF000CDE9013200910B46104A11A11748FEF7B6
:10200000B7FD00BFA4E70000600000209045000875
:1020100094450008640000204E4F4E4554000020B7
:10202000580000205C0000205E0000209C45000855
:10203000A4450008DC450008A0450008851E0008EE
:1020400075432F4F532D494949204953522051750B
:10205000657565205461736B00000000BC1700209B
:102060000021034A1160034A11800180704700007B
:10207000700000207400002070B502460B46104628
:10208000114610315E1EB5B2002408E00160002642
:1020900046600681C66010301031661CB4B2AC4296
:1020A000F4DB0026066046600681C66070BD000055
:1020B00010B504461048006818B945F21E7020801B
:1020C00010BD0E48008818B945F21D702080F7E752
:1020D0000A48018808480068FFF7CEFF06480068F4
:1020E000074908600548008888800020C88008816A
:1020F000208000BFE4E70000C0450008B8450008A4
:102100008018002010B5014648894B89002B17DD47
:102110000A680C4B1B6813600A4C4B68236023460B
:10212000DB884C891B1B074CE38023469B884C892A
:102130002344044CA38000234B818B810B604B60B4
:1021400010BD0000801800200181002242818281A0
:1021500002604260704700002DE9F0410D46DDE964
:102160000674B0F80AC0B0F80880C44505DB46F232
:10217000935CA4F800C0BDE8F081DFF8D4C0BCF8DF
:1021800004C0BCF1000F04D145F21D7CA4F800C0CE
:10219000F1E7DFF8BCC0DCF80010DFF8B480D1F85C
:1021A00000C0C8F800C0C446BCF804C0ACF1010CC3
:1021B000A8F804C0C446BCF806C00CF1010CA8F88D
:1021C00006C0C446BCF808C0B8F80680C44507DAA3
:1021D000DFF87CC0BCF806C0DFF87480A8F808C03F
:1021E000B0F80AC0BCF1000F06D1016041604FF0A9
:1021F000010CA0F80AC017E003F0100CBCF1000FAE
:1022000007D1066831604FF0000CC1F800C00160D2
:1022100004E0D0F804C0C1F800C04160B0F80AC0C2
:102220000CF1010CA0F80AC0B0F80CC0B0F80A809C
:10223000C44503DAB0F80AC0A0F80CC04D600A81AA
:10224000CF604FF0000CA4F800C000BF93E700007F
:10225000801800200021034A1160034A1180018088
:1022600070470000780000207C0000202DE9F0413C
:1022700005460C4616461F461548006880F834602F
:1022800000201349096881F8350039461048006874
:1022900000F0F4FB6CB104F10808EC60012229465F
:1022A0000B48006800F016F82946404600F066F832
:1022B00006E0002006490968C887054909680863DF
:1022C00003480168204600F019F8BDE8F0810000DD
:1022D000D000002010B5C287016300230AE000246B
:1022E0004C600C600C614C610C83CC6188602031C7
:1022F0005C1CA3B29342F2DB10BD000030B548B1C4
:102300004568C1F8C05000F10804226893681D6A4E
:10231000C56113E091F83450022D02D0072D08D189
:1023200003E007A5C1F8C05007E007A5C1F8C050F9
:1023300003E008A5C1F8C05000BF00BF30BD0000D9
:102340005461736B205100005461736B2053656DB1
:10235000000000002000000030B507A5C1F8C05003
:1023600000F1080422681AB193681D6AC56101E092
:1023700001A5C56130BD000020000000F0B58E68E9
:1023800096F8375007893FB90127078100274F602A
:102390000F600160416023E007897F1C07810268AC
:1023A00006E0946894F83770AF4200DD02E05268AE
:1023B000002AF6D100BF32B900274F6043680B6096
:1023C000596041600CE017682FB9116000270F6059
:1023D0004A60016004E013680B604A605960116054
:1023E000F0BD2DE9F0410446256BE68F0AE0D5F8F3
:1023F0000C8008F108072946384600F00AF8203515
:10240000701E86B2002EF2DC0020E0872063BDE85B
:10241000F08110B50489012C03D1002404604460CC
:1024200011E00C6824B94A680024146002600AE0D4
:102430004C6824B90B6800245C60436003E00B68BF
:102440004A685A6013600489641E048100244C6049
:102450000C6010BD2DE9F84306460C461746984619
:10246000089D94F83600082850D2DFE800F00405F3
:10247000080906072B2C00BF00BF00BF47E000BFC4
:1024800094F83400032807D143463A4621463046A3
:10249000009500F03FF803E0E765A4F8608025644C
:1024A00036B12046FFF79DFF21463046FFF754FF27
:1024B000204600F0B3FC00203434A070607004F8B3
:1024C000340924E000BF94F83400032807D14346C0
:1024D0003A4621463046009500F01CF803E0E765D7
:1024E000A4F860802564204601F04EF936B12046FC
:1024F000FFF777FF21463046FFF72EFF04203434E4
:10250000A0700020607004F8340900E000BF00BF34
:10251000BDE8F883F0B50446059E086BCD8F0AE050
:10252000C768A74204D1046142610383C66104E025
:1025300020306F1EBDB2002DF2DC00BFF0BD0000E8
:1025400070B50025074C03E005F12000C5B2241D3D
:1025500020680028F8D02068FDF795FE2844C5B211
:10256000284670BD28000020002004E00021034A16
:1025700042F82010401C0228F8D3704728000020A1
:1025800030B5420900F01F030121C3F11F04A1402F
:10259000034C54F822400C43014D45F8224030BD15
:1025A0002800002030B5420900F01F030121C3F1CB
:1025B0001F04A140034C54F822408C43014D45F8C0
:1025C000224030BD280000200021034A1160034A48
:1025D00011800180704700008400002088000020E6
:1025E0002DE9F04F85B007468A4693461C460020E9
:1025F000029000BF00BF00BFFDF73AFE029000BF8F
:1026000000BF48480078401C4649087000BF00BF22
:102610000298FDF731FE00BF00BF00BF07F10806BA
:102620003089002842D104F0100010B94FF00008A2
:1026300001E04FF01008DDE90E0143465A46CDE9AE
:102640000001514607F12000FFF786FD00BF00BFE3
:1026500000BFFDF70DFE029000BF00BF31480078BB
:10266000401E3049087008460078A0B92E480088FE
:10267000002809DD00BF00BF0298FDF7FDFD00BF87
:1026800000BF00F0E7F80DE000BF00BF0298FDF7C3
:10269000F3FD00BF06E000BF00BF0298FDF7ECFDB0
:1026A00000BF00BF00BF05B0BDE8F08F04F40070AC
:1026B00008B1358900E00125D6F8009011E0D9F87D
:1026C00008000390D9F8040004900E985B46524627
:1026D000009038460399FFF7BDFEDDF81090681EA4
:1026E00085B2002DEBD100BF00BF00BFFDF7C0FDDC
:1026F000029000BF00BF0B480078401E09490870D7
:1027000000BF00BF0298FDF7B7FD00BF00BF00BFCC
:1027100004F4004008B9FEF723F900210F98018066
:1027200000BFC0E7980000205C00002000210AE004
:1027300001EB4102054B03EB8200002202810260A3
:1027400042604A1CD1B24029F2D370478C18002055
:1027500010B5044694F83700FFF712FF94F83700DD
:1027600005490978884203D1204600F027F802E0A5
:10277000204600F003F810BD7E00002010B590F850
:10278000373003EB43030C4C04EB83010B893BB95B
:1027900001230B810023C36003610860486009E0E6
:1027A0000B895B1C0B810B68C360002303610A6803
:1027B0001061086010BD00008C18002010B590F862
:1027C000373003EB43030B4C04EB83010B893BB91C
:1027D00001230B810023C36003610860486008E0A7
:1027E0000B895B1C0B810023C3604A680261D060C7
:1027F000486010BD8C1800202DE9F041054695F881
:10280000370000EB4000124901EB80042F69EE68AD
:1028100087B946B9002020812060606095F83700B4
:10282000FFF7C0FE0EE02089401E208100203061AD
:10283000266007E02089401E2081FE600EB9676097
:1028400000E0376100202861E860BDE8F081000009
:102850008C18002010B5002400BFFDF709FD0446C8
:1028600000BF00200C4908700C480D49086008465C
:102870000068D0F89000401C0968C1F89000094831
:102880000068401C07490860FDF79FFD00BF204617
:10289000FDF7F2FC00BF10BD7F000020BC17002038
:1028A000D4000020A400002010B5044800780128BE
:1028B00003D1FDF7D1FD0249086010BD980000204A
:1028C0008C00002010B50A48007880B9FDF7C4FDDF
:1028D00008490968441A08480068A04201D206481D
:1028E000046006480068A04201D20448046010BD9C
:1028F000980000208C000020900000209400002010
:102900000021034A1160034A1180018070470000D2
:102910009C000020A00000202DE9FF5F04468846AF
:1029200091461D460020019000BF00BFFDF7A0FCAE
:10293000019000BF00BF04F10807388900284FD17B
:102940000420012804D0022814D0042834D123E024
:10295000206AFF280DD100BF00BF0198FDF78CFC55
:1029600000BF00BF46F6C5502880002004B0BDE877
:10297000F09F22E04FF6FF71206A88420BD100BF22
:1029800000BF0198FDF778FC00BF00BF46F6C550B8
:1029900028800020EAE710E0206A401C58B900BFF8
:1029A00000BF0198FDF768FC00BF00BF46F6C550A8
:1029B00028800020DAE700E000BF00BF206A401C4A
:1029C0002062D4F820A0C4F8249000BF00BF019872
:1029D000FDF752FC00BF00BF002028805046C5E72D
:1029E00000BF25480078401C2349087000BF00BF85
:1029F0000198FDF741FC00BF00BF00BF08F4007064
:102A000008B13E8900E00126D7F800B011E0DBF8FC
:102A100008000290DBF80400039000231A46CDF86A
:102A2000009020460299FFF715FDDDF80CB0701EEE
:102A300086B2002EEBD1D4F820A000BF00BF00BFAB
:102A4000FDF716FC019000BF00BF0B480078401E48
:102A50000949087000BF00BF0198FDF70DFC00BFD9
:102A600000BF00BF08F4004008B9FDF779FF00205F
:102A7000288050467AE700009800002038B50446C8
:102A80000D4685B16B4602222946204600F09EFD88
:102A9000BDF8000018B9032084F8360006E00220D3
:102AA00084F8360002E0022084F836002046FFF762
:102AB000A3FE38BD0021C0F8B8100949096819B94A
:102AC0000021C0F8BC1007E005490968C0F8BC1037
:102AD00003490968C1F8B80001490860704700005F
:102AE000A8000020D0F8B820D0F8BC104AB90D4B8F
:102AF000196011B10023C1F8B8300023C0F8BC3010
:102B00000FE029B90023C2F8BC30C0F8B83008E0A3
:102B1000C2F8BC10C1F8B8200023C0F8BC30C0F81F
:102B2000B8307047A80000200021044A1160044A10
:102B30001180044A1160018070470000A800002045
:102B4000AC000020A400002070B5044600202060E6
:102B5000A0606060E06020616061A061E06129A028
:102B6000206200206062A062E0622064E065A4F858
:102B70006000002104F16400FFF7E6FA002044F849
:102B8000740F6060E060A0822061743C002506E064
:102B9000002104F17C0040F82510681CC5B2002D0E
:102BA000F6D000203434206120676067606084F8CC
:102BB0005600E067A06720814FF000406061002070
:102BC000A061E06120626062A4F85800A4F85A0095
:102BD000E0652066FDF740FC064666660020A066BC
:102BE000C4F8800020706070A0704020E070002069
:102BF000C4F88400C4F8880004A0C4F88C00343CF5
:102C000070BD00003F5461736B00000020000000A5
:102C10002DE9FC4704460F4690469946DDE90A65D2
:102C20004FF0000A00BF00BF00BFFDF721FB824646
:102C300000BF00BF76480078401C7549087000BF8F
:102C400000BF5046FDF718FB00BF00BF00BF0CB926
:102C5000704804680020288094F8360008287DD247
:102C6000DFE800F004053E3F0607404100BF00BF1B
:102C700000BF4B464246394604F16400CDE9006589
:102C8000FFF76AFA00BF00BF00BFFDF7F1FA824606
:102C900000BF00BF5E480078401E5D4908700846CE
:102CA0000078A0B95C480088002809DD00BF00BF9B
:102CB0005046FDF7E1FA00BF00BFFFF7CBFD0DE086
:102CC00000BF00BF5046FDF7D7FA00BF06E000BFC7
:102CD00000BF5046FDF7D0FA00BF00BF00BF93E031
:102CE00000BF00BF00BF94F83400022821D1434642
:102CF0003A46214600200096FFF7ACFB00BF00BF1C
:102D000000BFFDF7B5FA824600BF00BF404800781B
:102D1000401E3F49087000BF00BF5046FDF7ACFAA7
:102D200000BF00BF00BF09F4004090BBFDF718FED4
:102D300038E04B464246394604F16400CDE900656F
:102D4000FFF70AFA00BF00BF00BFFDF791FA824605
:102D500000BF00BF2E480078401E00E023E02C4951
:102D6000087008460078A8B92B480088002809DDBB
:102D700000BF00BF5046FDF77FFA00BF00BFFFF75E
:102D800069FD0EE000BF00BF5046FDF775FA00BFB9
:102D900007E007E000BF00BF5046FDF76DFA00BF37
:102DA00000BF00BF30E000BF00BF00BFFDF760FA0A
:102DB000824600BF00BF16480078401E14490870C4
:102DC00008460078A0B914480088002809DD00BF33
:102DD00000BF5046FDF750FA00BF00BFFFF73AFDB5
:102DE0000DE000BF00BF5046FDF746FA00BF06E009
:102DF00000BF00BF5046FDF73FFA00BF00BF00BF55
:102E000046F62D60288000BF00BFBDE8FC870000AB
:102E100098000020D00000205C00002010B504467F
:102E2000204600F0B1FC94F8360000F0040010B920
:102E30002046FFF78DFC10BD70B504460D460026F8
:102E400000BF00BFFDF714FA064600BF00BF002018
:102E5000288094F8360008287BD2DFE800F00405CB
:102E600006071243556700BF00BF00BF00BF00BF89
:102E70003046FDF701FA00BF00BF47F2531028802B
:102E800072E000BF3B480078401C3A49087000BF20
:102E900000BF3046FDF7F0F900BF00BF00BF14F8D7
:102EA0008A0F401E207014F88A0928B9002084F87F
:102EB00036002046FFF7B2FF00BF00BF00BFFDF79E
:102EC000D7F9064600BF00BF2A480078401E2949AE
:102ED000087000BF00BF3046FDF7CEF900BF00BF4D
:102EE00000BF41E014F88A0F401E207014F88A09D0
:102EF00010B9012084F8360000BF00BF3046FDF74E
:102F0000BBF900BF00BF2FE014F88A0F401E2070ED
:102F100014F88A0910B9022084F8360000BF00BFF7
:102F20003046FDF7A9F900BF00BF1DE014F88A0F75
:102F3000401E207014F88A0910B9032084F8360066
:102F400000BF00BF3046FDF797F900BF00BF0BE0A0
:102F5000FFE700BF00BF3046FDF78EF900BF00BF9E
:102F600046F62D60288070BD00BFFDF7F9FC00BF5C
:102F7000F9E700009800002008B504480068FEF753
:102F800015F869460020FDF723FF08BDD00000209A
:102F90002DE9F8430446884617461D464FF00009C0
:102FA00000BF00BF00BFFDF763F9814600BF00BF4F
:102FB000FE480078401CFD49087000BF00BF48462D
:102FC000FDF75AF900BF00BF00BF0CB9F84804680C
:102FD00027640020288094F83600082871D2DFE8A2
:102FE00000F00405EBEC0607EDEE00BF00BF00BFEC
:102FF0000420012804D0022839D004286FD170E0C1
:10300000606CFF2832D100BF00BF00BFFDF730F970
:10301000814600BF00BFE5480078401EE3490870C4
:1030200008460078A0B9E3480088002809DD00BF01
:1030300000BF4846FDF720F900BF00BFFFF70AFCBC
:103040000DE000BF00BF4846FDF716F900BF06E0DF
:1030500000BF00BF4846FDF70FF900BF00BF00BF2B
:1030600046F6C55028800020BDE8F88371E04FF691
:10307000FF71606C884233D100BF00BF00BFFDF715
:10308000F7F8814600BF00BFC8480078401EC74916
:10309000087008460078A8B9C6480088002809DDED
:1030A00000BF00BF4846FDF7E7F800BF00BFFFF7CD
:1030B000D1FB0EE000BF00BF4846FDF7DDF800BFC2
:1030C00007E08DE100BF00BF4846FDF7D5F800BF1F
:1030D00000BF00BF46F6C55028800020C4E737E097
:1030E00037E0606C401C88BB00BF00BF00BFFDF72D
:1030F000BFF8814600BF00BFAC480078401EAB4916
:10310000087008460078A0B9AA480088002809DDA0
:1031100000BF00BF4846FDF7AFF800BF00BFFFF794
:1031200099FB0DE000BF00BF4846FDF7A5F800BFC2
:1031300006E000BF00BF4846FDF79EF800BF00BF95
:1031400000BF46F6C550288000208DE7FFE700E06D
:1031500000BF00BF606C401C6064666C00BF00BFB5
:1031600000BFFDF785F8814600BF00BF8F4800789B
:10317000401E8E49087008460078A0B98D48008826
:10318000002809DD00BF00BF4846FDF775F800BF05
:1031900000BFFFF75FFB0DE000BF00BF4846FDF733
:1031A0006BF800BF06E000BF00BF4846FDF764F8BB
:1031B00000BF00BF00BF45E100BF00BF00BF94F8E3
:1031C0003400072823D100231A46214618460097C9
:1031D000FFF740F9666C00BF00BF00BFFDF748F87D
:1031E000814600BF00BF71480078401E6F490870DB
:1031F00000BF00BF4846FDF73FF800BF00BF00BF5B
:1032000008F40040002801D1FDF7AAFBE7E0042004
:10321000012804D0022838D004286ED16EE0606CFA
:10322000FF2831D100BF00BF00BFFDF721F8814664
:1032300000BF00BF5D480078401E5C49087008462A
:103240000078A0B95B480088002809DD00BF00BFF6
:103250004846FDF711F800BF00BFFFF7FBFA0DE08D
:1032600000BF00BF4846FDF707F800BF06E000BFFB
:1032700000BF4846FDF700F800BF00BF00BF46F69C
:10328000C55028800020EFE670E04FF6FF71606CBB
:10329000884231D100BF00BF00BFFCF7E9FF814683
:1032A00000BF00BF41480078401E404908700846F2
:1032B0000078A0B93F480088002809DD00BF00BFA2
:1032C0004846FCF7D9FF00BF00BFFFF7C3FA0DE087
:1032D00000BF00BF4846FCF7CFFF00BF06E000BFBD
:1032E00000BF4846FCF7C8FF00BF00BF00BF46F65E
:1032F000C55028800020B7E638E036E0606C401CFE
:1033000088BB00BF00BF00BFFCF7B2FF814600BF13
:1033100000BF26480078401E2449087008460078FF
:10332000A0B924480088002809DD00BF00BF484636
:10333000FCF7A2FF00BF00BFFFF78CFA0DE000BF53
:1033400000BF4846FCF798FF00BF06E000BF00BF83
:103350004846FCF791FF00BF00BF00BF46F6C550CE
:103360002880002080E6FFE700E000BF00BF606C1F
:10337000401C6064666C00BF00BF00BFFCF778FFB4
:10338000814600BF00BF09480078401E0749087009
:1033900008460078D8B907480088002810DD00BF2B
:1033A00000BF4846FCF768FF00BF05E0980000201A
:1033B000D00000205C00002000BFFFF74BFA0DE0BA
:1033C00000BF00BF4846FCF757FF00BF06E000BF44
:1033D00000BF4846FCF750FF00BF00BF00BF31E010
:1033E00000BF00BF00BFFCF743FF814600BF00BF26
:1033F00016480078401E1549087008460078A0B9A4
:1034000013480088002809DD00BF00BF4846FCF7CC
:1034100033FF00BF00BFFFF71DFA0DE000BF00BF84
:103420004846FCF729FF00BF06E000BF00BF484642
:10343000FCF722FF00BF00BF00BF46F62D602880CA
:10344000002600BF00BF30460EE6000098000020B6
:103450005C00002070B504460D46002600BF00BF8A
:10346000FCF706FF064600BF00BF0CB94B480468D6
:103470004A48006884420ED14948007800280ADD95
:1034800000BF00BF3046FCF7F7FE00BF00BF46F6A6
:103490006350288070BD0020288094F836000828EA
:1034A0006CD2DFE800F004313F4D5B5C5D5E00BF35
:1034B0003B480078401C3A49087000BF00BF3046C6
:1034C000FCF7DAFE00BF00BF00BF042084F836001E
:1034D000012084F88A002046FFF78EF900BF00BF64
:1034E00000BFFCF7C5FE064600BF00BF2C480078B1
:1034F000401E2B49087000BF00BF3046FCF7BCFEE1
:1035000000BF00BF00BF44E0052084F83600012062
:1035100084F88A0000BF00BF3046FCF7ADFE00BF54
:1035200000BF36E0062084F83600012084F88A00C7
:1035300000BF00BF3046FCF79FFE00BF00BF28E081
:10354000072084F83600012084F88A0000BF00BFFD
:103550003046FCF791FE00BF00BF1AE000BF00BF7D
:1035600000BF94F88A00401C84F88A0000BF00BFA6
:103570003046FCF781FE00BF00BF0AE000BF00BF7D
:103580003046FCF779FE00BF00BF46F62D6028806C
:1035900080E700BFFDF7E4F900BF7BE7D000002023
:1035A00098000020002108E0064A02EBC10000223A
:1035B00002608280C2804A1C91B2034A1288914202
:1035C000F2DB7047E8130020F84500082DE9F04FC2
:1035D0000C4616461D46042E1ED1DFF8A091D9F8E0
:1035E0000090A4EB0909A9F1010313F5803F0DD95F
:1035F0004FF00009C0F84C90C0F85090C0F81C90F3
:1036000047F27E29A5F80090BDE8F08FC46403F16D
:103610000109C0F850903FE084B3082E25D1D0F8BE
:10362000489009EB0407DFF85491D9F80090A7EB14
:103630000909A9F10103A34201D2C76406E0DFF83A
:103640003C91D9F80090A144C0F84C90DFF82CA12F
:10365000D0F84C90DAF800A0A9EB0A09C0F8509015
:10366000D0F84C90C0F8489016E0DFF81091D9F8E7
:103670000090A144C0F84C9004650DE0FFE74FF0C6
:103680000009C0F84C90C0F85090C0F81C9047F268
:103690007E29A5F80090B7E7DFF8E4A0BAF800A00B
:1036A000D0F84C90B9FBFAFB0AFB1B991FFA89F87A
:1036B000DFF8D09009EBC802B2F80490B9F1000F1E
:1036C0000BD14FF00009C0F81490C0F818901060AA
:1036D0004FF00109A2F804903EE0116834E0DFF8F1
:1036E0009CA0D1F84C90DAF800A0A9EB0A09C1F827
:1036F0005090D0F85090D1F850A0D1450ED9D1F8C3
:103700001490B9F1000F01D049691DE04FF0000994
:10371000C0F8149081614861002115E0D1F818903B
:10372000B9F1000F07D14FF00009C0F818904161BE
:103730008861106007E0D1F818C0C0F818C0416176
:10374000CCF81400886100210029C8D1B2F8049097
:1037500009F10109A2F80490B2F80690B2F804A0A9
:10376000D14503DAB2F80490A2F80690C2614FF096
:103770000009A5F8009000BF46E70000B000002057
:10378000F8450008E813002010B5C269BAB100245A
:1037900004651468844205D14169116039B100247F
:1037A0008C6104E0816943694B6103B19961002434
:1037B00044618461C461C4649488641E948010BDB3
:1037C0002DE9F05F4FF0000B00BF00BF00BFFCF71A
:1037D0004FFD834600BF00BF71480078401C704910
:1037E000087000BF00BF5846FCF746FD00BF00BF91
:1037F00000BFFCF731FE05466A480068401C694975
:1038000008600846006868490988B0FBF1F201FBCE
:1038100012001FFA80FA654800EBCA08D8F8004089
:10382000002782E0002C7FD0D4F8149094F8360062
:10383000082875D2DFE800F00408051B063D075094
:1038400000BF00BF00BF6CE05649E06C0968401A39
:1038500020655449E06C0968884206D1002084F84C
:1038600036002046FFF7DAFA00E0012759E04D491B
:10387000E06C0968401A20654A49E06C0968884292
:1038800015D10020E065A4F86000FCF7E5FD206498
:103890002046FEF7A6FD2046FFF7C0FA002034348C
:1038A000A07003206070002004F8340900E00127B4
:1038B00037E03C49E06C0968401A20653949E06C02
:1038C0000968884206D1042084F836002046FFF7B4
:1038D0005BFF00E0012724E03249E06C0968401AF0
:1038E00020653049E06C0968884217D10020E06506
:1038F000A4F86000FCF7B0FD20642046FEF771FDDF
:103900002046FFF741FF04203434A070032060708C
:10391000002004F8340902E006E001E0012700E09D
:1039200000BF00BF4C4600E00127002F3FF47AAFF4
:10393000FCF792FD461B1E480068B04201D21C48AD
:10394000066000BF00BF00BFFCF792FC834600BFCB
:1039500000BF13480078401E1149087008460078DF
:10396000A0B914480088002809DD00BF00BF5846F0
:10397000FCF782FC00BF00BFFEF76CFF0DE000BF4C
:1039800000BF5846FCF778FC00BF06E000BF00BF50
:103990005846FCF771FC00BF00BF00BFBDE8F09FB8
:1039A00098000020B0000020F8450008E81300202F
:1039B000B40000205C0000201CB500BF0EE001AB8D
:1039C0006A4600210846FDF7FDFABDF8040028B953
:1039D00003480078012801D1FFF7F2FEEFE700006D
:1039E0005100002010B58AB0044600201D4908602F
:1039F0001D490860FFF7D6FD1C48006820B947F252
:103A0000122020800AB010BD1948006819490968C1
:103A1000884203D247F213202080F3E7164800784B
:103A20003F2803D347F211202080EBE70B20002131
:103A300005910A46CDE9070406910D4800680F4933
:103A400009680A4B1B68CDE90131CDE903020A4838
:103A5000007800230A4A0BA100900F48FDF788F870
:103A600000BFCFE7B0000020B4000020E845000808
:103A7000F0450008DC450008E4450008EC45000876
:103A8000B939000875432F4F532D494949205469CE
:103A9000636B205461736B008C1B002070B58AB07F
:103AA00004460020314908603148006840B131487F
:103AB00000682F490968B0FBF1F02F49086006E063
:103AC0002C4800680A21B0FBF1F02B4908602A4815
:103AD00000682A49086000202949086029490860CF
:103AE000002508E0284800EBC5060020B080F080E3
:103AF0003060681C85B2254800888542F2DB244886
:103B0000006820B947F2473020800AB070BD2148D4
:103B1000006821490968884203D247F24830208072
:103B2000F3E71E4800783F2803D347F24630208051
:103B3000EBE70B2000210591CDE90704069108462B
:103B400014490968164A1268114B1B68CDE9013205
:103B5000CDE90310114800780023124A12A1009009
:103B60001748FDF705F800BFCFE70000B8000020B8
:103B700004460008E0450008C8000020CC000020F2
:103B8000C4000020C0000020701600201846000865
:103B90000846000810460008DC45000800460008FA
:103BA0000C460008953C000875432F4F532D49499A
:103BB000492054696D6572205461736B00000000E8
:103BC000501C0020F0B50C46022680F82A60012C1B
:103BD00005D12D4F466A3F683E4486610CE0066A77
:103BE0002EB9294F466A3F683E44866104E0264F5D
:103BF000066A3F683E448661244F3F888669B6FB6B
:103C0000F7FC07FB1C66B5B2214E06EBC502166831
:103C100036B90026066146611060012696802CE0C8
:103C2000194F86693F68F61BC661116820E0164F80
:103C30008E693F68F61BCE61C669CF69BE4209D95D
:103C40000E690EB1096913E0002606614161086141
:103C500000210DE04E692EB90026466101614861E0
:103C6000106004E04B694361016118614861002103
:103C70000029DCD19688761C9680D6889788BE422B
:103C800001DA9688D680F0BDC400002018460008EE
:103C9000701600201CB500BF53E001AB6A4600213E
:103CA0000846FDF78FF901A8FCF7AAFEFCF7D4FB44
:103CB000064624480068401C2249086008460068FF
:103CC00021490988B0FBF1F201FB12001FFA80FACA
:103CD0001E4800EBCA08D8F800404FF0000B21E066
:103CE000F4B1D4F810901749A0690968884214D13A
:103CF000204600F02FF8208D022804D10121204613
:103D0000FFF760FF02E0032084F82A00A56815B1E0
:103D10002046E168A8474C4604E04FF0010B01E063
:103D20004FF0010BBBF1000FDAD0FCF795FB871BBE
:103D300001A8FCF79FFE06480068B84201D204487B
:103D40000760AAE7C400002018460008701600208B
:103D5000C0000020F0B5114E36888569B5FBF6F736
:103D600006FB1755ACB20E4D05EBC4021568854233
:103D700005D10169116039B100254D6104E0416947
:103D800003690B6103B15961012580F82A500025B0
:103D90000561456195886D1E9580F0BD1846000847
:103DA0007016002029B1064A12680243044B1A60BB
:103DB00004E0034A12688243014B1A607047000016
:103DC0003038024029B1064A12680243044B1A6097
:103DD00004E0034A12688243014B1A6070470000F6
:103DE00044380240F0B500210022002402250026BC
:103DF0000223324F3F6807F00C0121B1042905D09E
:103E0000082937D105E02E4F076036E02D4F0760B7
:103E100033E02A4F3F1F3F68C7F38056274F3F1FAD
:103E20003F6807F03F036EB1264FB7FBF3F7DFF8AB
:103E30008CC0ACF1040CDCF800C0CCF3881C07FB90
:103E40000CF40CE01E4FB7FBF3F7DFF870C0ACF1D9
:103E5000040CDCF800C0CCF3881C07FB0CF4174FF3
:103E60003F1F3F68C7F301477F1C7D00B4FBF5F798
:103E7000076002E0124F076000BF00BF0F4F3F68AE
:103E800007F0F0010909104F7A5C0768D7404760D6
:103E90000A4F3F6807F4E051890A0B4F7A5C476884
:103EA000D7408760054F3F6807F46041490B064FD4
:103EB0007A5C4768D740C760F0BD00000838024010
:103EC0000024F40000127A00000000200021010903
:103ED0008AB242F08002044B1B6803F0800363EA5D
:103EE0000202014B1A6070470C28004030B50146B1
:103EF0000020002200230C4C246804F004020A4C29
:103F0000383C24680C4002EAD13544EA0503064CEB
:103F1000343C246804EA11121BB194B20CB10120A4
:103F200000E0002030BD00004028004010B54FF4F4
:103F30008040FFF7DBFF28B10120054908608003BE
:103F4000FFF7C4FF4FF48000FCF78EFA10BD0000AD
:103F500010000020704700000CB500200190009078
:103F60003448006840F480303249086000BF31486E
:103F7000006800F4003000900198401C0190009807
:103F800018B90198B0F5A04FF1D12A48006800F4A3
:103F9000003010B10120009001E000200090009856
:103FA000012846D123484030006840F08050214924
:103FB000403108602048006840F440401E490860D5
:103FC0001C48083000681B49083108600846006832
:103FD00040F4004008600846006840F4A0500860C3
:103FE0001648091F0860081F006840F08070091F0C
:103FF000086000BF0F48006800F000700028F9D08A
:1040000040F205700E4908600A480830006820F048
:1040100003000849083108600846006840F00200C3
:10402000086000BF03480830006800F00C00082852
:10403000F8D10CBD00380240007000400854400721
:10404000003C0240042808D14FF0E021096941F00A
:1040500004014FF0E022116107E04FF0E02109690F
:1040600021F004014FF0E0221161704710B50548BE
:104070000078012805D1FCF7EFFBFDF717FBFCF7F3
:1040800001FC10BD5100002010B51548006840F437
:104090007000134908601348006840F0010011499E
:1040A000086000200F49083108600E4800680E497A
:1040B00008400C4908600D48091D0860081F006889
:1040C00020F48020091F0860002006490C31086098
:1040D000FFF742FF4FF0006001498039086010BDD2
:1040E00088ED00E000380240FFFFF6FE10300024AB
:1040F00010B5FCF7B1FB40F225511E4800F055F811
:1041000010B31C4800F00AF9C4B21B48008800F440
:104110000040C8B91848008800F4804060B10A2CFB
:1041200003D000201449088020E01348008840F4A0
:1041300000401149088019E00D2C06D10E48008876
:1041400040F480400C49088010E00B480088C0F320
:104150000D000A490C5408480088401C0649088094
:1041600008460088C72801DD00200880FCF78AFB8C
:1041700010BD00000010014024000020DC000020E1
:1041800001F40072B2F5007F00D100BFCA43028083
:10419000704721B1828942F40052828104E0828911
:1041A0004DF6FF731A408281704770B502460024B5
:1041B00000230025002040F66A16B14200D100BF5E
:1041C000C1F3421501F01F03012606FA03F3012D86
:1041D00002D19689334006E0022D02D1168A33407F
:1041E00001E0968A33400C12012606FA04F4168880
:1041F000344013B10CB1012000E0002070BDF0B5D7
:104200000346002400260025002040F66A17B94224
:1042100000D100BF1846C1F3421401F01F06012768
:1042200007FA06F5012C01D10C3004E0022C01D173
:10423000103000E014301AB107682F43076002E025
:104240000768AF430760F0BD2DE9FF4705460E46FE
:104250000024A14600BFA046B08900B100BF2C8A4F
:1042600024F44054F08804432C82AC8941F20C6061
:104270008443B08831890843718908430443AC8181
:10428000AC8A24F44074B0890443AC826846FFF7DA
:10429000A9FD2048854202D01F48854202D1DDF8A1
:1042A0000C9001E0DDF80890A88900F4004040B1CE
:1042B00009EBC90000EB091031684900B0FBF1F7C8
:1042C00007E009EBC90000EB091031688900B0FB79
:1042D000F1F76420B7FBF0F004012009642101FB31
:1042E0001078A88900F4004040B1322000EBC800EB
:1042F000B0FBF1F000F00700044308E0322000EBCF
:1043000008106421B0FBF1F000F00F0004432C8191
:10431000BDE8FF8700100140001401400146888875
:10432000C0F30800704700BFFEE70000002001490D
:1043300008607047082C004000200349096809B153
:10434000012000E000207047082C004010B5FFF766
:10435000F3FF20B17F2000F003F8FFF7E7FF10BD67
:1043600000F07F01014A116070470000002C0040FE
:1043700000BF704770B504466FF00400FFF762FE9F
:104380002046E11704EB5171C1F3C701114A1170C6
:10439000E11704EB5171CD100F4800680F49B1FBD4
:1043A000F0F045430C4800684FF47A71B1FBF0F02F
:1043B0000B4908804FF0E020006940F002004FF008
:1043C000E021086108464561006940F0010008618C
:1043D00070BD00001C000020E045000840420F00B6
:1043E0001E00002000BF054A128802F04002002A89
:1043F000F9D0C2B2014B9A80704700000010014012
:1044000000B58BB0A820FFF7B5FF4FF4A060FCF714
:10441000DDF84FF4E13000F053F80AA8FCF756F944
:104420000AA8002105910691CDE9071008468021D0
:104430000C22094BCDE90132CDE903100120002304
:10444000064A07A100900848FCF792FB0AA8FCF76F
:104450005BFB00200BB000BD680200206D4400082B
:104460005461736B31000000A40100200EB508A058
:10447000FBF716FF0BE00CA0FBF712FF02A80021D0
:104480000B460122CDE900100846FDF717F8F2E7C8
:104490007461736B31206973206372656174652088
:1044A0006F6B0D0A000000007461736B312069733B
:1044B0002072756E6E696E67202E2E2E0D0A00001A
:1044C00010B588B0044601210846FFF76BFC0121B6
:1044D0001020FFF777FC072209212448FCF712F887
:1044E00007220A212148FCF70DF84FF4C06006901E
:1044F00002208DF81C008DF81D0000208DF81E0094
:1045000001208DF81F0006A91848FBF7B3FF02949D
:104510000020ADF80C00ADF80E00ADF81000ADF8BD
:1045200014000C20ADF8120002A91148FFF78CFE10
:1045300001210F48FFF72DFE40210D48FFF720FE17
:10454000012240F225510A48FFF759FE25208DF837
:10455000040003208DF805008DF8060001208DF879
:10456000070001A8FBF7F6FF08B010BD00000240ED
:10457000001001404FF04070E1EE100A704700005B
:10458000680400200C000000800000000002000011
:10459000680600200A00000040010000A807002073
:1045A0000C0000008000000000020000A8090020AC
:1045B00080000000000200006400000040060000CF
:1045C000A80B002000000000000000000000000018
:1045D000000000000000000000000000400000009B
:1045E000C800000001000000E81100200C000000DD
:1045F00080000000000200001100000088000000A0
:104600000200000064000000701400200C00000094
:10461000800000000002000011000000880000007F
:1046200090120000010001017856341201010000CF
:10463000000000000000000000000000000000007A
:10464000000000000000000000000000000000006A
:10465000000000000000000001010100280004002B
:104660002000010000000000000000000000000029
:10467000000000000000000000000000000000003A
:104680000000000001002000010010000C001000DC
:10469000000000000000000000000000000000001A
:1046A000000000000000000000000000000000000A
:1046B00000000000000000000000000001010100F7
:1046C0002C00010020000C00200040000800040025
:1046D00000000000000000000000000000000000DA
:1046E00000000000000000000000000000000000CA
:1046F00000000000000000000000000000000000BA
:104700000101010130000000000000000000000075
:104710000000000000000000000000000000000099
:104720000000000000000000000000000000000089
:104730000101010128000C00000300000400010138
:104740000101010101000101C40008000101000094
:104750000000000000000000000000000000000059
:104760000000000000000000000000000000000049
:104770000000000000000000000000000000000039
:10478000000000000101340008005C76B70600005C
:10479000B047000800000020DC000000C401000851
:1047A0008C480008DC0000209C7C0000E001000830
:1047B00000000000010203040102030406070809C7
:1047C00000000000000000000000000000000000E9
:1047D00000000000000000000000000000000000D9
:1047E00000000000000000000000000000000000C9
:1047F00000000000000000000000000000000000B9
:1048000000000000000000000000000000000000A8
:104810000000000000000000000000000000000098
:104820000000000000000000000000000000000088
:104830000000000000000000000000000000000078
:104840000000000000000000000000000000000068
:104850000000000000000000000000000000000058
:104860000000000000000000000000000000000048
:104870000000000000000000000000000000000038
:0C4880000000000000000000000000002C
:040000050800018965
:00000001FF
