:020000040800F2
:10000000A80700209D0100089103000829030008AB
:100010008D0300083B020008EF0800080000000004
:100020000000000000000000000000003906000889
:100030003F020008000000008D050008510700087D
:1000400015090008B7010008B701000811060008EB
:10005000B7010008B7010008B7010008B7010008A0
:10006000B7010008B7010008B7010008B701000890
:10007000B7010008B7010008B7010008B701000880
:10008000B7010008B7010008B7010008B701000870
:10009000B7010008B7010008B7010008B701000860
:1000A000B7010008B7010008B7010008B701000850
:1000B000B7010008B7010008B7010008B701000840
:1000C000B7010008B7010008B7010008B701000830
:1000D000B7010008C9070008B70100080D080008AB
:1000E000B7010008B7010008B7010008B701000810
:1000F000B7010008B7010008B7010008B701000800
:10010000B7010008B7010008B7010008B7010008EF
:10011000B7010008B7010008B7010008B7010008DF
:10012000B7010008B7010008B7010008B7010008CF
:10013000B7010008B7010008B7010008B7010008BF
:10014000B7010008B7010008B7010008B7010008AF
:10015000B7010008B7010008B7010008B70100089F
:10016000B7010008B7010008B7010008B70100088F
:10017000B7010008B7010008B7010008B70100087F
:10018000B7010008B7010008DFF80CD000F018F83C
:1001900000480047030A0008A807002006488047D7
:1001A00006480047FEE7FEE7FEE7FEE7FEE7FEE75C
:1001B000FEE7FEE7FEE7FEE76107000889010008A9
:1001C000064C074D06E0E06840F0010394E80700A4
:1001D00098471034AC42F6D3FFF7DAFF580A00080C
:1001E000780A000870B58C1810F8015B15F0070349
:1001F00001D110F8013B2A1106D110F8012B03E0C0
:1002000010F8016B01F8016B5B1EF9D12B0705D4C7
:100210000023521E0DD401F8013BFAE710F8013B10
:10022000CB1A921C03E013F8015B01F8015B521E2C
:10023000F9D5A142D8D3002070BD00BFFEE77047BA
:100240004FF0E021096921F001014FF0E022116136
:1002500045F208214143491E516100219161114637
:10026000096941F00101116100BF4FF0E021096906
:1002700001F480310029F8D000214FF0E022116113
:10028000916170470149086070470000143C0140CB
:10029000F0B50A4600210023002400BF3DE00125FF
:1002A00005FA01F3156805EA03049C4234D1056898
:1002B0004F000326BE40B543056015794E00B5409A
:1002C0000668354305601579012D02D01579022D98
:1002D00016D185684F000326BE40B5438560557929
:1002E0004E00B540866835438560456801268E40DE
:1002F000B5434560456896798E40B6B23543456052
:10030000C5684F000326BE40B543C560D5794E0091
:10031000B540C6683543C560491C1029BFD3F0BD40
:10032000418370470183704700BFFEE710B501218C
:100330000748FFF7F7FF10210548FFF7F3FF1021EB
:100340000348FFF7EDFF01210148FFF7E9FF10BD6A
:100350000010024010B501210548FFF7E3FF10210E
:100360000348FFF7DDFF10210148FFF7DBFF10BD59
:100370000010024010B501210348FFF7D3FF01210F
:100380000148FFF7CDFF10BD0010024000BFFEE79F
:10039000704770B5002418E004F1B000002100F0AF
:1003A000E9F80021084600F0E5F80021102000F0EF
:1003B000E1F8002505E00121002000F0DBF8681CD1
:1003C000C5B2802DF7DB601CC4B2082CE4DB70BD25
:1003D0001CB50121102000F0DBF801208DF804008D
:1003E00000208DF8060003208DF8050000208DF810
:1003F00007001120009069463948FFF749FF4FF484
:100400004870FFF71DFF0021AE2000F0B3F8002177
:10041000084600F0AFF80021102000F0ABF80021F2
:10042000402000F0A7F80021B02000F0A3F8002140
:10043000812000F09FF80021FF2000F09BF80021B0
:10044000A12000F097F80021A62000F093F80021E9
:10045000A82000F08FF800213F2000F08BF8002149
:10046000C82000F087F80021D32000F083F8002195
:10047000084600F07FF80021D52000F07BF800212D
:10048000802000F077F80021D82000F073F80021D8
:10049000052000F06FF80021D92000F06BF8002152
:1004A000F12000F067F80021DA2000F063F8002165
:1004B000122000F05FF80021DB2000F05BF8002143
:1004C000302000F057F800218D2000F053F8002173
:1004D000142000F04FF80021AF2000F04BF81CBDB5
:1004E0000010024070B504460D4605F1B000002131
:1004F00000F040F8102141EA1410002100F03AF811
:1005000004F00F00002100F035F870BD2DE9F04136
:1005100080460E461546002731464046FFF7E2FF6B
:1005200000240AE0124A02EB8511085D012100F067
:1005300021F8781CC7B2601CC4B2102CF2DB701C0E
:10054000C1B24046FFF7CEFF00240CE06900491C11
:10055000074A02EB4111085D012100F00BF8781CFD
:10056000C7B2601CC4B2102CF0DBBDE8F081000003
:100570000000002070B504460D461DB1E0B200F049
:100580001BFA02E0E0B200F001FA70BD7047000013
:1005900029B1064A12680243044B1A6004E0034A78
:1005A00012688243014B1A607047000030380240E5
:1005B000002101098AB242F08002044B1B6803F05B
:1005C000800363EA0202014B1A6070470C28004066
:1005D00030B501460020002200230C4C246804F0B2
:1005E00004020A4C383C24680C4002EAD13544EA43
:1005F0000503064C343C246804EA11121BB194B282
:100600000CB1012000E0002030BD00004028004077
:1006100010B54FF48040FFF7DBFF28B101200549FA
:1006200008608003FFF7C4FF4FF48000FFF72AFE45
:1006300010BD000080030020704700000CB50020B2
:10064000019000903448006840F4803032490860DE
:1006500000BF3148006800F4003000900198401C51
:100660000190009818B90198B0F5A04FF1D12A482F
:10067000006800F4003010B10120009001E000207B
:1006800000900098012846D123484030006840F08F
:1006900080502149403108602048006840F44040C3
:1006A0001E4908601C48083000681B490831086072
:1006B0000846006840F4004008600846006840F4BE
:1006C000A05008601648091F0860081F006840F025
:1006D0008070091F086000BF0F48006800F00070BC
:1006E0000028F9D040F205700E4908600A48083029
:1006F000006820F0030008490831086008460068D7
:1007000040F00200086000BF03480830006800F0B5
:100710000C000828F8D10CBD0038024000700040E1
:1007200008544007003C0240042808D14FF0E02163
:10073000096941F004014FF0E022116107E04FF038
:10074000E021096921F004014FF0E02211617047B6
:10075000704710B56FF00400FFF7E6FF10BD000012
:1007600010B51548006840F470001349086013483C
:10077000006840F001001149086000200F4908316D
:1007800008600E4800680E4908400C4908600D4892
:10079000091D0860081F006820F48020091F0860F8
:1007A000002006490C310860FFF748FF4FF0006059
:1007B00001498039086010BD88ED00E00038024032
:1007C000FFFFF6FE1030002410B5002440F2255142
:1007D0000C4800F059F898B140F22551094800F052
:1007E00037F8084800F07AF804462146064800F039
:1007F0007AF800BF8021044800F039F80028F9D0C9
:1008000010BD0000001001400048004010B5002459
:1008100040F225510C4800F037F898B140F22551CC
:10082000094800F015F8084800F058F80446214639
:10083000064800F058F800BF8021044800F017F87F
:100840000028F9D010BD0000004800400010014011
:1008500010B50022002340F66A14A14200D100BF67
:100860000A1201249440A3B2DC43048010BD024666
:100870000020B1F5007F00D100BF13880B400BB101
:10088000012000E00020704770B5024600240023DC
:100890000025002040F66A16B14200D100BFC1F326
:1008A000421501F01F03012606FA03F3012D02D1C0
:1008B0009689334006E0022D02D1168A334001E0CA
:1008C000968A33400C12012606FA04F41688344046
:1008D00013B10CB1012000E0002070BD01468888F2
:1008E000C0F308007047C1F308028280704700BF60
:1008F000FEE700000020014908607047082C004016
:1009000000200349096809B1012000E00020704778
:10091000082C004010B5FFF7F3FF20B17F2000F056
:1009200003F8FFF7E7FF10BD00F07F01014A1160F7
:1009300070470000002C00402DE9F04105462C4690
:1009400001211148FFF7ECFC002619E0274607F0CB
:100950008007802F04D110210B48FFF7E3FC03E050
:1009600010210948FFF7DCFC6006040E012106484F
:10097000FFF7D8FC01210448FFF7D2FC701CC6B277
:10098000082EE3DBBDE8F0810010024010B50446FC
:10099000FFF7CCFC7820FFF7CFFFFFF7EBFC002040
:1009A000FFF7CAFFFFF7E6FC2046FFF7C5FFFFF79A
:1009B000E1FCFFF7CFFC10BD10B50446FFF7B6FC15
:1009C0007820FFF7B9FFFFF7D5FC4020FFF7B4FF11
:1009D000FFF7D0FC2046FFF7AFFFFFF7CBFCFFF798
:1009E000B9FC10BD02E008C8121F08C1002AFAD1E4
:1009F00070477047002001E001C1121F002AFBD19F
:100A00007047FFF7A6FEFFF7E3FCFFF7C2FC0022EA
:100A100011461046FFF77AFD012200211220FFF750
:100A200075FD022200212420FFF770FD0322002122
:100A30003620FFF76BFD042200214820FFF766FDFA
:100A4000052200215A20FFF761FD062200216C20BB
:100A5000FFF75CFD00BFFEE7780A000800000020F9
:100A6000A4030000E4010008E40B0008A403002034
:100A700004040000F4090008211BF010012AFF05FE
:100A80000215F01B0F04012AFF0502130F1809407D
:100A900040405F55555575041A5F0C091121080C2B
:100AA00011200F094989790909090F201F112FFE0B
:100AB00002424ACA4A0304134202FE000E14FF40D7
:100AC000504C4340404F50505C40FF1BF888012A77
:100AD000FF050215F81B1F08012A7F200B109F80BD
:100AE000E23B808201000916E2A2928A868280801F
:100AF000041840807F172424A4FEA3221B22CCAA22
:100B0000011415080601FF2B0104010511FF020263
:100B1000025808101010FF109008C3021108080FA7
:100B2000100444827F01808040432C10284681A01D
:100B300018094040484848C8784F060515484840BD
:100B4000400009150312122222528A063C106080CE
:100B5000BA19040B11C030FB1E404043407F061CF5
:100B60007F424106094FC02941080B1110D030FFC8
:100B700030D0121C10101F3D080402019E0D1101FF
:100B8000020408211116FE222222FE0712FE828292
:100B900092A29E100880601F0242827F0F11FF40C8
:100BA0002F102C438011000B1490884C57A4245410
:100BB000548C84180801018042221A07441D423EC9
:100BC00001018AF9E1000D14E4242CB4252624B493
:100BD0002C24E404180AFF02011E1212121E418680
:040BE00001360000DA
:040000050800018965
:00000001FF
