:020000040800F2
:10000000380400209D01000899090008CD06000869
:100010009509000841050008631000080000000071
:10002000000000000000000000000000C90B0008F4
:100030004505000800000000150A0008E10C000852
:1000400089100008B7010008B7010008A10B0008DB
:10005000B7010008B7010008B7010008B7010008A0
:10006000B7010008B7010008B7010008B701000890
:10007000B7010008B7010008B7010008B701000880
:10008000B7010008B7010008B7010008B701000870
:10009000B7010008B7010008B7010008B701000860
:1000A000B7010008B7010008B7010008B701000850
:1000B000B7010008B7010008B7010008B701000840
:1000C000B7010008B7010008B7010008B701000830
:1000D000B7010008590D0008B7010008490E0008D3
:1000E000B7010008B7010008B7010008B701000810
:1000F000B7010008B7010008B7010008B701000800
:10010000B7010008B7010008B7010008B7010008EF
:10011000B7010008B7010008B7010008B7010008DF
:10012000B7010008B7010008B7010008B7010008CF
:10013000B7010008B7010008B7010008B7010008BF
:10014000B7010008B7010008B7010008B7010008AF
:10015000B7010008B7010008B7010008B70100089F
:10016000B7010008B7010008B7010008B70100088F
:10017000B7010008B7010008B7010008B70100087F
:10018000B7010008B7010008DFF80CD000F018F83C
:1001900000480047E5110008380400200648804761
:1001A00006480047FEE7FEE7FEE7FEE7FEE7FEE75C
:1001B000FEE7FEE7FEE7FEE7F10C00088901000814
:1001C000064C074D06E0E06840F0010394E80700A4
:1001D00098471034AC42F6D3FFF7DAFF90120008CC
:1001E000B012000810B500F073FA10BD70B50646E5
:1001F0000C46154600F064FBA02000F025FB00F043
:100200009FFB012804D113A000F050FF00F078FB01
:10021000304600F019FB00F093FB012804D116A032
:1002200000F044FF00F06CFB0CE014F8010B00F050
:100230000BFB00F085FB012804D117A000F036FF6E
:1002400000F05EFB281EA5F10101CDB2EDD100F05A
:1002500057FB70BD415432344330322041636B2030
:1002600044657669636520416464726573732045F3
:1002700072726F720A0000004154323443303220EF
:1002800041636B20506167652041646472657373DC
:10029000204572726F720A0041543234433032206A
:1002A00057726974652044617461204572726F727F
:1002B0000A00000070B506460C46154600F000FB2B
:1002C000A02000F0C1FA00F03BFB012804D11BA0E4
:1002D00000F0ECFE00F014FB304600F0B5FA00F040
:1002E0002FFB012804D11FA000F0E0FE00F008FB66
:1002F00000F0E6FAA12000F0A7FA00F021FB0128A7
:1003000004D120A000F0D2FE00F0FAFA681EC5B2B7
:1003100006E000F033FA04F8010B002000F0FEF9CB
:10032000281EA5F10101CDB2F3D100F027FA20700B
:10033000012000F0F3F900F0E3FA70BD41543234CB
:100340004330322041636B204465766963652057F2
:1003500072697465204164647265737320457272BA
:100360006F720A00415432344330322041636B20B3
:1003700044617461204164647265737320457272D4
:100380006F720A00415432344330322041636B2093
:1003900044657669636520526561642041646472D6
:1003A000657373204572726F720A000070B504465F
:1003B000002500F085FAA02000F046FA00F0C0FA0F
:1003C000012804D114A000F071FE00F099FA204633
:1003D00000F03AFA00F0B4FA012804D118A000F0B5
:1003E00065FE00F08DFA00F06BFAA12000F02CFA07
:1003F00000F0A6FA012804D119A000F057FE00F081
:100400007FFA00F0BBF90546012000F087F900F003
:1004100077FA284670BD0000415432344330322010
:1004200041636B2044657669636520577269746522
:100430002041646472657373204572726F720A00A2
:10044000415432344330322041636B204461746143
:100450002041646472657373204572726F720A0082
:10046000415432344330322041636B204465766915
:100470006365205265616420416464726573732012
:100480004572726F720A000070B505460C4600F0A6
:1004900017FAA02000F0D8F900F052FA012804D190
:1004A0000FA000F003FE00F02BFA284600F0CCF974
:1004B00000F046FA012804D112A000F0F7FD00F088
:1004C0001FFA204600F0C0F900F03AFA012804D1E2
:1004D00014A000F0EBFD00F013FA00F011FA70BD6B
:1004E000415432344330322041636B204465766995
:1004F00063652041646472657373204572726F7224
:100500000A000000415432344330322041636B20F2
:100510004461746120416464726573732045727232
:100520006F720A004154323443303220577269747A
:10053000652044617461204572726F720A00000088
:1005400000BFFEE770474FF0E021096921F001018B
:100550004FF0E022116145F208214143491E5161EB
:10056000002191611146096941F00101116100BF4B
:100570004FF0E021096901F480310029F8D0002111
:100580004FF0E0221161916170474FF0E02109695D
:1005900021F001014FF0E0221161C0EBC00101EB3D
:1005A0004101491E5161002191611146096941F0E3
:1005B0000101116100BF4FF0E021096901F48031B0
:1005C0000029F8D000214FF0E022116191617047BD
:1005D0000149086070470000143C0140F0B50A462C
:1005E00000210023002400BF3DE0012505FA01F3AE
:1005F000156805EA03049C4234D105684F000326C0
:10060000BE40B543056015794E00B54006683543D8
:1006100005601579012D02D01579022D16D1856856
:100620004F000326BE40B543856055794E00B54066
:10063000866835438560456801268E40B543456030
:10064000456896798E40B6B235434560C5684F001F
:100650000326BE40B543C560D5794E00B540C66897
:100660003543C560491C1029BFD3F0BDF0B5002348
:1006700000244D07ED0E02FA05F3CE1000F120051F
:1006800055F826504E07F70E0F26BE40B543CF1043
:1006900000F1200646F82750CE1000F1200555F84D
:1006A000265045EA0304CE1000F1200545F8264007
:1006B000F0BD0246002013690B400BB1012000E0A1
:1006C00000207047418370470183704700BFFEE7F9
:1006D0001CB50121022000F09FF94FF440700090FA
:1006E00001208DF8040000208DF8060003208DF80D
:1006F000050000208DF8070069460748FFF76EFFE8
:100700004FF480710448FFF7DFFF4FF40071024897
:10071000FFF7DAFF1CBD00000004024010B50446DC
:1007200000F076F84FF480711348FFF7CBFF4FF4D9
:1007300000711148FFF7C6FF2CB14FF400710E484D
:10074000FFF7C2FF04E04FF400710B48FFF7BAFF58
:100750000520FFF71AFF4FF480710748FFF7B4FF39
:100760000520FFF712FF4FF480710348FFF7AAFF3F
:100770000520FFF70AFF10BD0004024070B50024F9
:10078000002500F02FF84FF480711548FFF79AFF0D
:100790000520FFF7FAFE00BF1DE04FF480711048FE
:1007A000FFF792FF0520FFF7F0FE4FF400710C48B1
:1007B000FFF77FFF012804D1C4F1070188402843D7
:1007C000C5B24FF480710648FFF77CFF0520FFF7A4
:1007D000DCFE601CC4B2082CDFDB284670BD0000C4
:1007E000000402401CB50121022000F015F94FF46D
:1007F0000070009000208DF8040001208DF80700A3
:1008000069460248FFF7EAFE1CBD000000040240F2
:100810001CB50121022000F0FFF84FF40070009099
:1008200001208DF8040000208DF8060003208DF8CB
:10083000050001208DF8070069460248FFF7CEFE4B
:100840001CBD00000004024070B505460024FFF7FF
:10085000DFFF4FF480711948FFF734FF4FF4007148
:100860001648FFF72FFF00BF25E0C4F10701012064
:100870008840284028B14FF400711048FFF724FF4A
:1008800004E04FF400710D48FFF71CFF0520FFF74F
:100890007CFE4FF480710948FFF716FF0520FFF733
:1008A00074FE4FF480710548FFF70CFF0520FFF739
:1008B0006CFE601CC4B2082CD7DB70BD0004024083
:1008C00010B5FFF7A5FF4FF480710C48FFF7FCFE51
:1008D0004FF400710948FFF7F7FE0520FFF755FEBA
:1008E0004FF400710548FFF7EDFE0520FFF74DFEC0
:1008F0004FF480710148FFF7E5FE10BD000402408F
:1009000010B5FFF785FF4FF480710C48FFF7DAFE52
:100910004FF400710948FFF7D5FE4FF48071074886
:10092000FFF7D2FE0520FFF730FE4FF400710348B9
:10093000FFF7CAFE0520FFF728FE10BD00040240A5
:1009400010B5FFF74FFF4FF480711148FFF7BAFE63
:100950000520FFF71AFE4FF480710D48FFF7B4FE33
:100960000520FFF712FE4FF400710948FFF7A1FEC2
:10097000012801D1012400E000244FF480710448D3
:10098000FFF7A0FE0520FFF700FE204610BD000087
:100990000004024000BFFEE77047000070B5002170
:1009A00000230F22C4781CB3174C246804F4E064BD
:1009B000C4F5E064C4F30721C1F10404E3B20A41C1
:1009C00044789C40E1B28478144021430C07210E06
:1009D0000E4C05786155047804F01F050124AC40E5
:1009E00005786D11AD0005F1E025C5F8004109E07D
:1009F000047804F01F050124AC40054D06787611FB
:100A000045F8264070BD00000CED00E000E400E079
:100A100080E100E07047000029B1064A12680243F5
:100A2000044B1A6004E0034A12688243014B1A60C7
:100A3000704700003038024029B1064A126802436C
:100A4000044B1A6004E0034A12688243014B1A60A7
:100A50007047000044380240F0B500210022002415
:100A6000022500260223324F3F6807F00C0121B116
:100A7000042905D0082937D105E02E4F076036E05C
:100A80002D4F076033E02A4F3F1F3F68C7F3805662
:100A9000274F3F1F3F6807F03F036EB1264FB7FB5C
:100AA000F3F7DFF88CC0ACF1040CDCF800C0CCF339
:100AB000881C07FB0CF40CE01E4FB7FBF3F7DFF8C4
:100AC00070C0ACF1040CDCF800C0CCF3881C07FB50
:100AD0000CF4174F3F1F3F68C7F301477F1C7D0091
:100AE000B4FBF5F7076002E0124F076000BF00BFDC
:100AF0000F4F3F6807F0F0010909104F7A5C076853
:100B0000D74047600A4F3F6807F4E051890A0B4F0E
:100B10007A5C4768D7408760054F3F6807F46041BB
:100B2000490B064F7A5C4768D740C760F0BD0000AC
:100B3000083802400024F40000127A00000000206F
:100B4000002101098AB242F08002044B1B6803F0C5
:100B5000800363EA0202014B1A6070470C280040D0
:100B600030B501460020002200230C4C246804F01C
:100B700004020A4C383C24680C4002EAD13544EAAD
:100B80000503064C343C246804EA11121BB194B2EC
:100B90000CB1012000E0002030BD000040280040E2
:100BA00010B54FF48040FFF7DBFF28B10120054965
:100BB00008608003FFF7C4FF4FF48000FFF708FDD3
:100BC00010BD000010000020704700000CB5002090
:100BD000019000903448006840F480303249086049
:100BE00000BF3148006800F4003000900198401CBC
:100BF0000190009818B90198B0F5A04FF1D12A489A
:100C0000006800F4003010B10120009001E00020E5
:100C100000900098012846D123484030006840F0F9
:100C200080502149403108602048006840F440402D
:100C30001E4908601C48083000681B4908310860DC
:100C40000846006840F4004008600846006840F428
:100C5000A05008601648091F0860081F006840F08F
:100C60008070091F086000BF0F48006800F0007026
:100C70000028F9D040F205700E4908600A48083093
:100C8000006820F003000849083108600846006841
:100C900040F00200086000BF03480830006800F020
:100CA0000C000828F8D10CBD00380240007000404C
:100CB00008544007003C0240042808D14FF0E021CE
:100CC000096941F004014FF0E022116107E04FF0A3
:100CD000E021096921F004014FF0E0221161704721
:100CE000704710B56FF00400FFF7E6FF10BD00007D
:100CF00010B51548006840F47000134908601348A7
:100D0000006840F001001149086000200F490831D7
:100D100008600E4800680E4908400C4908600D48FC
:100D2000091D0860081F006820F48020091F086062
:100D3000002006490C310860FFF748FF4FF00060C3
:100D400001498039086010BD88ED00E0003802409C
:100D5000FFFFF6FE1030002410B5002440F22551AC
:100D60000C4800F0BBF898B140F22551094800F05A
:100D70008DF8084800F06CF904462146064800F05A
:100D80006CF900BF8021044800F09BF80028F9D0DE
:100D900010BD0000001001400048004010B588B0B0
:100DA000044601211020FFF747FE01210846FFF706
:100DB00033FE02208DF81C0000208DF81F008DF8F6
:100DC0001E0003208DF81D004002069006A91C4855
:100DD000FFF704FC072209211948FFF747FC072207
:100DE0000A211748FFF742FC01940020ADF80800E3
:100DF000ADF80A00ADF80C00ADF810000C20ADF80D
:100E00000E0001A90F4800F0B9F8012240F2255167
:100E10000C4800F08DF825208DF8140000208DF886
:100E200015008DF8160001208DF8170005A8FFF7B2
:100E3000B5FD0121034800F038F808B010BD0000EE
:100E4000000002400010014010B5002440F225517E
:100E50000C4800F043F898B140F22551094800F0E1
:100E600015F8084800F0F4F804462146064800F05A
:100E7000F4F800BF8021044800F023F80028F9D0DE
:100E800010BD0000004800400010014010B50022D5
:100E9000002340F66A14A14200D100BF0A120124C7
:100EA0009440A3B2DC43048010BD21B1828942F496
:100EB0000052828104E082894DF6FF731A408281DC
:100EC000704702460020B1F5007F00D100BF1388B3
:100ED0000B400BB1012000E00020704770B50246C6
:100EE000002400230025002040F66A16B14200D1FC
:100EF00000BFC1F3421501F01F03012606FA03F3F8
:100F0000012D02D19689334006E0022D02D1168AC6
:100F1000334001E0968A33400C12012606FA04F4AD
:100F20001688344013B10CB1012000E0002070BDE0
:100F3000F0B50346002400260025002040F66A177D
:100F4000B94200D100BF1846C1F3421401F01F0698
:100F5000012707FA06F5012C01D10C3004E0022C20
:100F600001D1103000E014301AB107682F43076038
:100F700002E00768AF430760F0BD00002DE9FF47BE
:100F800005460E460024A14600BFA046B08900B128
:100F900000BF2C8A24F44054F08804432C82AC898E
:100FA00041F20C608443B088318908437189084359
:100FB0000443AC81AC8A24F44074B0890443AC820D
:100FC0006846FFF749FD2048854202D01F48854208
:100FD00002D1DDF80C9001E0DDF80890A88900F45A
:100FE000004040B109EBC90000EB0910316849002D
:100FF000B0FBF1F707E009EBC90000EB091031681D
:101000008900B0FBF1F76420B7FBF0F00401200980
:10101000642101FB1078A88900F4004040B132201F
:1010200000EBC800B0FBF1F000F00700044308E05B
:10103000322000EB08106421B0FBF1F000F00F004B
:1010400004432C81BDE8FF870010014000140140DB
:1010500001468888C0F308007047C1F30802828007
:10106000704700BFFEE7000000200149086070479C
:10107000082C004000200349096809B1012000E064
:1010800000207047082C004010B5FFF7F3FF20B197
:101090007F2000F003F8FFF7E7FF10BD00F07F01AD
:1010A000014A116070470000002C00400FB4054B4E
:1010B00010B503A9044A029800F017F810BC5DF8B7
:1010C00014FB0000C11100083400002002E008C831
:1010D000121F08C1002AFAD170477047002001E0B2
:1010E00001C1121F002AFBD170472DE9F84F994624
:1010F000924688460546002706E025280AD0514634
:101100004A4690476D1C7F1C28780028F5D1384648
:10111000BDE8F88F002315F8011F18462E2915D1B8
:1011200015F8011F04232A290DD06FF02F0229780A
:10113000A1F13004092C09D800EB800002EB40003B
:1011400008446D1CF3E758F8040B6D1C2A78002A3C
:10115000DDD0632A07D0732A0FD0104651464A4685
:1011600090477F1C2AE018F8042B8DF800200021FE
:101170008DF801106E46012103E058F8046B4FF022
:10118000FF315A074FF0000401D409E0641C844287
:101190000BDA8C42FADB325D002AF7D105E0641CE1
:1011A0008C42FCDB305D0028F9D1274404E016F8BE
:1011B000010B51464A469047641EF8D26D1CA3E7C6
:1011C00070B504460D46A1B20548FFF746FF00BFC3
:1011D00080210348FFF775FE0028F9D0204670BD36
:1011E000001001400EB500200090019002900024F4
:1011F0004FF41650FFF7D2FDFFF773FDFEF7F2FF35
:1012000061210020FFF740F96420FFF79CF90020DE
:10121000FFF7CCF8044621460AA0FFF747FF052256
:1012200010A10820FEF7E2FF6420FFF78CF90522E9
:1012300069460820FFF73EF869460CA0FFF736FF25
:1012400000BFFEE75265616420446174612046720C
:101250006F6D20415432344330322049732025636E
:10126000200A000068656C6C6F00000052656164C4
:1012700020446174612046726F6D20506167652063
:1012800041646472657373204973202573200A00DA
:10129000B01200080000002038000000CC10000848
:1012A000E81200083800002000040000DC100008EC
:1012B00000000000010203040102030406070809FC
:1012C000000000000000000000000000000000001E
:1012D000000000000000000000000000000000000E
:0812E000000000000000000006
:040000050800018965
:00000001FF
